{
  "_format": "hh-sol-artifact-1",
  "contractName": "FlashArb",
  "sourceName": "contracts/FlashArb.sol",
  "abi": [
    {
      "anonymous": false,
      "inputs": [
        {
          "indexed": true,
          "internalType": "address",
          "name": "dex1",
          "type": "address"
        },
        {
          "indexed": true,
          "internalType": "address",
          "name": "dex2",
          "type": "address"
        },
        {
          "indexed": false,
          "internalType": "uint256",
          "name": "amountIn",
          "type": "uint256"
        },
        {
          "indexed": false,
          "internalType": "uint256",
          "name": "amountOut",
          "type": "uint256"
        },
        {
          "indexed": false,
          "internalType": "uint256",
          "name": "profit",
          "type": "uint256"
        }
      ],
      "name": "Arbitrage",
      "type": "event"
    },
    {
      "inputs": [
        {
          "internalType": "address",
          "name": "dex1",
          "type": "address"
        },
        {
          "internalType": "address",
          "name": "dex2",
          "type": "address"
        },
        {
          "internalType": "uint256",
          "name": "amount",
          "type": "uint256"
        }
      ],
      "name": "executeArbitrage",
      "outputs": [],
      "stateMutability": "nonpayable",
      "type": "function"
    },
    {
      "inputs": [],
      "name": "totalProfit",
      "outputs": [
        {
          "internalType": "uint256",
          "name": "",
          "type": "uint256"
        }
      ],
      "stateMutability": "view",
      "type": "function"
    }
  ],
  "bytecode": "0x608060405234801561001057600080fd5b506105de806100206000396000f3fe608060405234801561001057600080fd5b50600436106100365760003560e01c8063650f84be1461003b5780638600151914610057575b600080fd5b61005560048036038101906100509190610332565b610075565b005b61005f610293565b60405161006c9190610394565b60405180910390f35b600081116100b8576040517f08c379a00000000000000000000000000000000000000000000000000000000081526004016100af9061040c565b60405180910390fd5b60008373ffffffffffffffffffffffffffffffffffffffff166394b918de836040518263ffffffff1660e01b81526004016100f39190610394565b6020604051808303816000875af1158015610112573d6000803e3d6000fd5b505050506040513d601f19601f820116820180604052508101906101369190610441565b905060008373ffffffffffffffffffffffffffffffffffffffff1663fec9d0ca836040518263ffffffff1660e01b81526004016101739190610394565b6020604051808303816000875af1158015610192573d6000803e3d6000fd5b505050506040513d601f19601f820116820180604052508101906101b69190610441565b90508281116101fa576040517f08c379a00000000000000000000000000000000000000000000000000000000081526004016101f1906104ba565b60405180910390fd5b600083826102089190610509565b90508060008082825461021b919061053d565b925050819055508473ffffffffffffffffffffffffffffffffffffffff168673ffffffffffffffffffffffffffffffffffffffff167fed48b13f1dfbf804523fbe02c20d9dcdff92b5c15ebdc9d5e0296be98307d2c386858560405161028393929190610571565b60405180910390a3505050505050565b60005481565b600080fd5b600073ffffffffffffffffffffffffffffffffffffffff82169050919050565b60006102c98261029e565b9050919050565b6102d9816102be565b81146102e457600080fd5b50565b6000813590506102f6816102d0565b92915050565b6000819050919050565b61030f816102fc565b811461031a57600080fd5b50565b60008135905061032c81610306565b92915050565b60008060006060848603121561034b5761034a610299565b5b6000610359868287016102e7565b935050602061036a868287016102e7565b925050604061037b8682870161031d565b9150509250925092565b61038e816102fc565b82525050565b60006020820190506103a96000830184610385565b92915050565b600082825260208201905092915050565b7f616d6f756e743d30000000000000000000000000000000000000000000000000600082015250565b60006103f66008836103af565b9150610401826103c0565b602082019050919050565b60006020820190508181036000830152610425816103e9565b9050919050565b60008151905061043b81610306565b92915050565b60006020828403121561045757610456610299565b5b60006104658482850161042c565b91505092915050565b7f6e6f2070726f6669740000000000000000000000000000000000000000000000600082015250565b60006104a46009836103af565b91506104af8261046e565b602082019050919050565b600060208201905081810360008301526104d381610497565b9050919050565b7f4e487b7100000000000000000000000000000000000000000000000000000000600052601160045260246000fd5b6000610514826102fc565b915061051f836102fc565b9250828203905081811115610537576105366104da565b5b92915050565b6000610548826102fc565b9150610553836102fc565b925082820190508082111561056b5761056a6104da565b5b92915050565b60006060820190506105866000830186610385565b6105936020830185610385565b6105a06040830184610385565b94935050505056fea2646970667358221220ca6bd80b5738095b2521698cfc71971412e0d273c4209ea234f1ddc9bff719b464736f6c63430008140033",
  "linkReferences": {},
  "deployedLinkReferences": {}
}