{"contracts/SimpleDEX.sol":{"SimpleDEX":{"abi":[{"inputs":[{"internalType":"uint256","name":"_reserveX","type":"uint256"},{"internalType":"uint256","name":"_reserveY","type":"uint256"}],"stateMutability":"nonpayable","type":"constructor"},{"inputs":[],"name":"FEE_BPS","outputs":[{"internalType":"uint256","name":"","type":"uint256"}],"stateMutability":"view","type":"function"},{"inputs":[],"name":"getPrice","outputs":[{"internalType":"uint256","name":"","type":"uint256"}],"stateMutability":"view","type":"function"},{"inputs":[],"name":"getReserves","outputs":[{"internalType":"uint256","name":"","type":"uint256"},{"internalType":"uint256","name":"","type":"uint256"}],"stateMutability":"view","type":"function"},{"inputs":[],"name":"reserveX","outputs":[{"internalType":"uint256","name":"","type":"uint256"}],"stateMutability":"view","type":"function"},{"inputs":[],"name":"reserveY","outputs":[{"internalType":"uint256","name":"","type":"uint256"}],"stateMutability":"view","type":"function"},{"inputs":[{"internalType":"uint256","name":"dx","type":"uint256"}],"name":"swap","outputs":[{"internalType":"uint256","name":"dy","type":"uint256"}],"stateMutability":"nonpayable","type":"function"},{"inputs":[{"internalType":"uint256","name":"dy","type":"uint256"}],"name":"swapReverse","outputs":[{"internalType":"uint256","name":"dx","type":"uint256"}],"stateMutability":"nonpayable","type":"function"}],"evm":{"bytecode":{"linkReferences":{},"object":"608060405234801561001057600080fd5b5060405161087f38038061087f83398181016040528101906100329190610082565b816000819055508060018190555050506100c2565b600080fd5b6000819050919050565b61005f8161004c565b811461006a57600080fd5b50565b60008151905061007c81610056565b92915050565b6000806040838503121561009957610098610047565b5b60006100a78582860161006d565b92505060206100b88582860161006d565b9150509250929050565b6107ae806100d16000396000f3fe608060405234801561001057600080fd5b506004361061007d5760003560e01c806398d5fdca1161005b57806398d5fdca146100ef578063bf333f2c1461010d578063fadfa65b1461012b578063fec9d0ca146101495761007d565b806308eabdda146100825780630902f1ac146100a057806394b918de146100bf575b600080fd5b61008a610179565b6040516100979190610448565b60405180910390f35b6100a861017f565b6040516100b6929190610463565b60405180910390f35b6100d960048036038101906100d491906104bd565b610190565b6040516100e69190610448565b60405180910390f35b6100f76102a3565b6040516101049190610448565b60405180910390f35b610115610311565b6040516101229190610448565b60405180910390f35b610133610316565b6040516101409190610448565b60405180910390f35b610163600480360381019061015e91906104bd565b61031c565b6040516101709190610448565b60405180910390f35b60005481565b600080600054600154915091509091565b60008082116101d4576040517f08c379a00000000000000000000000000000000000000000000000000000000081526004016101cb90610547565b60405180910390fd5b6000612710601e846101e69190610596565b6101f09190610607565b9050600081846102009190610638565b905060006001546000546102149190610596565b9050600082600054610226919061066c565b9050600081836102369190610607565b9050806001546102469190610638565b95506000861161028b576040517f08c379a0000000000000000000000000000000000000000000000000000000008152600401610282906106ec565b60405180910390fd5b81600081905550806001819055505050505050919050565b600080600054116102e9576040517f08c379a00000000000000000000000000000000000000000000000000000000081526004016102e090610758565b60405180910390fd5b600054670de0b6b3a76400006001546103029190610596565b61030c9190610607565b905090565b601e81565b60015481565b6000808211610360576040517f08c379a0000000000000000000000000000000000000000000000000000000008152600401610357906106ec565b60405180910390fd5b6000612710601e846103729190610596565b61037c9190610607565b90506000818461038c9190610638565b905060006001546000546103a09190610596565b90506000826001546103b2919061066c565b9050600081836103c29190610607565b9050806000546103d29190610638565b955060008611610417576040517f08c379a000000000000000000000000000000000000000000000000000000000815260040161040e90610547565b60405180910390fd5b80600081905550816001819055505050505050919050565b6000819050919050565b6104428161042f565b82525050565b600060208201905061045d6000830184610439565b92915050565b60006040820190506104786000830185610439565b6104856020830184610439565b9392505050565b600080fd5b61049a8161042f565b81146104a557600080fd5b50565b6000813590506104b781610491565b92915050565b6000602082840312156104d3576104d261048c565b5b60006104e1848285016104a8565b91505092915050565b600082825260208201905092915050565b7f64783d3000000000000000000000000000000000000000000000000000000000600082015250565b60006105316004836104ea565b915061053c826104fb565b602082019050919050565b6000602082019050818103600083015261056081610524565b9050919050565b7f4e487b7100000000000000000000000000000000000000000000000000000000600052601160045260246000fd5b60006105a18261042f565b91506105ac8361042f565b92508282026105ba8161042f565b915082820484148315176105d1576105d0610567565b5b5092915050565b7f4e487b7100000000000000000000000000000000000000000000000000000000600052601260045260246000fd5b60006106128261042f565b915061061d8361042f565b92508261062d5761062c6105d8565b5b828204905092915050565b60006106438261042f565b915061064e8361042f565b925082820390508181111561066657610665610567565b5b92915050565b60006106778261042f565b91506106828361042f565b925082820190508082111561069a57610699610567565b5b92915050565b7f64793d3000000000000000000000000000000000000000000000000000000000600082015250565b60006106d66004836104ea565b91506106e1826106a0565b602082019050919050565b60006020820190508181036000830152610705816106c9565b9050919050565b7f6e6f207072696365000000000000000000000000000000000000000000000000600082015250565b60006107426008836104ea565b915061074d8261070c565b602082019050919050565b6000602082019050818103600083015261077181610735565b905091905056fea26469706673582212205ffb94d800e5a2c894f968b9270193572dbb0629bc845530abdeb7012bb7645764736f6c63430008140033","opcodes":"PUSH1 0x80 PUSH1 0x40 MSTORE CALLVALUE DUP1 ISZERO PUSH2 0x10 JUMPI PUSH1 0x0 DUP1 REVERT JUMPDEST POP PUSH1 0x40 MLOAD PUSH2 0x87F CODESIZE SUB DUP1 PUSH2 0x87F DUP4 CODECOPY DUP2 DUP2 ADD PUSH1 0x40 MSTORE DUP2 ADD SWAP1 PUSH2 0x32 SWAP2 SWAP1 PUSH2 0x82 JUMP JUMPDEST DUP2 PUSH1 0x0 DUP2 SWAP1 SSTORE POP DUP1 PUSH1 0x1 DUP2 SWAP1 SSTORE POP POP POP PUSH2 0xC2 JUMP JUMPDEST PUSH1 0x0 DUP1 REVERT JUMPDEST PUSH1 0x0 DUP2 SWAP1 POP SWAP2 SWAP1 POP JUMP JUMPDEST PUSH2 0x5F DUP2 PUSH2 0x4C JUMP JUMPDEST DUP2 EQ PUSH2 0x6A JUMPI PUSH1 0x0 DUP1 REVERT JUMPDEST POP JUMP JUMPDEST PUSH1 0x0 DUP2 MLOAD SWAP1 POP PUSH2 0x7C DUP2 PUSH2 0x56 JUMP JUMPDEST SWAP3 SWAP2 POP POP JUMP JUMPDEST PUSH1 0x0 DUP1 PUSH1 0x40 DUP4 DUP6 SUB SLT ISZERO PUSH2 0x99 JUMPI PUSH2 0x98 PUSH2 0x47 JUMP JUMPDEST JUMPDEST PUSH1 0x0 PUSH2 0xA7 DUP6 DUP3 DUP7 ADD PUSH2 0x6D JUMP JUMPDEST SWAP3 POP POP PUSH1 0x20 PUSH2 0xB8 DUP6 DUP3 DUP7 ADD PUSH2 0x6D JUMP JUMPDEST SWAP2 POP POP SWAP3 POP SWAP3 SWAP1 POP JUMP JUMPDEST PUSH2 0x7AE DUP1 PUSH2 0xD1 PUSH1 0x0 CODECOPY PUSH1 0x0 RETURN INVALID PUSH1 0x80 PUSH1 0x40 MSTORE CALLVALUE DUP1 ISZERO PUSH2 0x10 JUMPI PUSH1 0x0 DUP1 REVERT JUMPDEST POP PUSH1 0x4 CALLDATASIZE LT PUSH2 0x7D JUMPI PUSH1 0x0 CALLDATALOAD PUSH1 0xE0 SHR DUP1 PUSH4 0x98D5FDCA GT PUSH2 0x5B JUMPI DUP1 PUSH4 0x98D5FDCA EQ PUSH2 0xEF JUMPI DUP1 PUSH4 0xBF333F2C EQ PUSH2 0x10D JUMPI DUP1 PUSH4 0xFADFA65B EQ PUSH2 0x12B JUMPI DUP1 PUSH4 0xFEC9D0CA EQ PUSH2 0x149 JUMPI PUSH2 0x7D JUMP JUMPDEST DUP1 PUSH4 0x8EABDDA EQ PUSH2 0x82 JUMPI DUP1 PUSH4 0x902F1AC EQ PUSH2 0xA0 JUMPI DUP1 PUSH4 0x94B918DE EQ PUSH2 0xBF JUMPI JUMPDEST PUSH1 0x0 DUP1 REVERT JUMPDEST PUSH2 0x8A PUSH2 0x179 JUMP JUMPDEST PUSH1 0x40 MLOAD PUSH2 0x97 SWAP2 SWAP1 PUSH2 0x448 JUMP JUMPDEST PUSH1 0x40 MLOAD DUP1 SWAP2 SUB SWAP1 RETURN JUMPDEST PUSH2 0xA8 PUSH2 0x17F JUMP JUMPDEST PUSH1 0x40 MLOAD PUSH2 0xB6 SWAP3 SWAP2 SWAP1 PUSH2 0x463 JUMP JUMPDEST PUSH1 0x40 MLOAD DUP1 SWAP2 SUB SWAP1 RETURN JUMPDEST PUSH2 0xD9 PUSH1 0x4 DUP1 CALLDATASIZE SUB DUP2 ADD SWAP1 PUSH2 0xD4 SWAP2 SWAP1 PUSH2 0x4BD JUMP JUMPDEST PUSH2 0x190 JUMP JUMPDEST PUSH1 0x40 MLOAD PUSH2 0xE6 SWAP2 SWAP1 PUSH2 0x448 JUMP JUMPDEST PUSH1 0x40 MLOAD DUP1 SWAP2 SUB SWAP1 RETURN JUMPDEST PUSH2 0xF7 PUSH2 0x2A3 JUMP JUMPDEST PUSH1 0x40 MLOAD PUSH2 0x104 SWAP2 SWAP1 PUSH2 0x448 JUMP JUMPDEST PUSH1 0x40 MLOAD DUP1 SWAP2 SUB SWAP1 RETURN JUMPDEST PUSH2 0x115 PUSH2 0x311 JUMP JUMPDEST PUSH1 0x40 MLOAD PUSH2 0x122 SWAP2 SWAP1 PUSH2 0x448 JUMP JUMPDEST PUSH1 0x40 MLOAD DUP1 SWAP2 SUB SWAP1 RETURN JUMPDEST PUSH2 0x133 PUSH2 0x316 JUMP JUMPDEST PUSH1 0x40 MLOAD PUSH2 0x140 SWAP2 SWAP1 PUSH2 0x448 JUMP JUMPDEST PUSH1 0x40 MLOAD DUP1 SWAP2 SUB SWAP1 RETURN JUMPDEST PUSH2 0x163 PUSH1 0x4 DUP1 CALLDATASIZE SUB DUP2 ADD SWAP1 PUSH2 0x15E SWAP2 SWAP1 PUSH2 0x4BD JUMP JUMPDEST PUSH2 0x31C JUMP JUMPDEST PUSH1 0x40 MLOAD PUSH2 0x170 SWAP2 SWAP1 PUSH2 0x448 JUMP JUMPDEST PUSH1 0x40 MLOAD DUP1 SWAP2 SUB SWAP1 RETURN JUMPDEST PUSH1 0x0 SLOAD DUP2 JUMP JUMPDEST PUSH1 0x0 DUP1 PUSH1 0x0 SLOAD PUSH1 0x1 SLOAD SWAP2 POP SWAP2 POP SWAP1 SWAP2 JUMP JUMPDEST PUSH1 0x0 DUP1 DUP3 GT PUSH2 0x1D4 JUMPI PUSH1 0x40 MLOAD PUSH32 0x8C379A000000000000000000000000000000000000000000000000000000000 DUP2 MSTORE PUSH1 0x4 ADD PUSH2 0x1CB SWAP1 PUSH2 0x547 JUMP JUMPDEST PUSH1 0x40 MLOAD DUP1 SWAP2 SUB SWAP1 REVERT JUMPDEST PUSH1 0x0 PUSH2 0x2710 PUSH1 0x1E DUP5 PUSH2 0x1E6 SWAP2 SWAP1 PUSH2 0x596 JUMP JUMPDEST PUSH2 0x1F0 SWAP2 SWAP1 PUSH2 0x607 JUMP JUMPDEST SWAP1 POP PUSH1 0x0 DUP2 DUP5 PUSH2 0x200 SWAP2 SWAP1 PUSH2 0x638 JUMP JUMPDEST SWAP1 POP PUSH1 0x0 PUSH1 0x1 SLOAD PUSH1 0x0 SLOAD PUSH2 0x214 SWAP2 SWAP1 PUSH2 0x596 JUMP JUMPDEST SWAP1 POP PUSH1 0x0 DUP3 PUSH1 0x0 SLOAD PUSH2 0x226 SWAP2 SWAP1 PUSH2 0x66C JUMP JUMPDEST SWAP1 POP PUSH1 0x0 DUP2 DUP4 PUSH2 0x236 SWAP2 SWAP1 PUSH2 0x607 JUMP JUMPDEST SWAP1 POP DUP1 PUSH1 0x1 SLOAD PUSH2 0x246 SWAP2 SWAP1 PUSH2 0x638 JUMP JUMPDEST SWAP6 POP PUSH1 0x0 DUP7 GT PUSH2 0x28B JUMPI PUSH1 0x40 MLOAD PUSH32 0x8C379A000000000000000000000000000000000000000000000000000000000 DUP2 MSTORE PUSH1 0x4 ADD PUSH2 0x282 SWAP1 PUSH2 0x6EC JUMP JUMPDEST PUSH1 0x40 MLOAD DUP1 SWAP2 SUB SWAP1 REVERT JUMPDEST DUP2 PUSH1 0x0 DUP2 SWAP1 SSTORE POP DUP1 PUSH1 0x1 DUP2 SWAP1 SSTORE POP POP POP POP POP POP SWAP2 SWAP1 POP JUMP JUMPDEST PUSH1 0x0 DUP1 PUSH1 0x0 SLOAD GT PUSH2 0x2E9 JUMPI PUSH1 0x40 MLOAD PUSH32 0x8C379A000000000000000000000000000000000000000000000000000000000 DUP2 MSTORE PUSH1 0x4 ADD PUSH2 0x2E0 SWAP1 PUSH2 0x758 JUMP JUMPDEST PUSH1 0x40 MLOAD DUP1 SWAP2 SUB SWAP1 REVERT JUMPDEST PUSH1 0x0 SLOAD PUSH8 0xDE0B6B3A7640000 PUSH1 0x1 SLOAD PUSH2 0x302 SWAP2 SWAP1 PUSH2 0x596 JUMP JUMPDEST PUSH2 0x30C SWAP2 SWAP1 PUSH2 0x607 JUMP JUMPDEST SWAP1 POP SWAP1 JUMP JUMPDEST PUSH1 0x1E DUP2 JUMP JUMPDEST PUSH1 0x1 SLOAD DUP2 JUMP JUMPDEST PUSH1 0x0 DUP1 DUP3 GT PUSH2 0x360 JUMPI PUSH1 0x40 MLOAD PUSH32 0x8C379A000000000000000000000000000000000000000000000000000000000 DUP2 MSTORE PUSH1 0x4 ADD PUSH2 0x357 SWAP1 PUSH2 0x6EC JUMP JUMPDEST PUSH1 0x40 MLOAD DUP1 SWAP2 SUB SWAP1 REVERT JUMPDEST PUSH1 0x0 PUSH2 0x2710 PUSH1 0x1E DUP5 PUSH2 0x372 SWAP2 SWAP1 PUSH2 0x596 JUMP JUMPDEST PUSH2 0x37C SWAP2 SWAP1 PUSH2 0x607 JUMP JUMPDEST SWAP1 POP PUSH1 0x0 DUP2 DUP5 PUSH2 0x38C SWAP2 SWAP1 PUSH2 0x638 JUMP JUMPDEST SWAP1 POP PUSH1 0x0 PUSH1 0x1 SLOAD PUSH1 0x0 SLOAD PUSH2 0x3A0 SWAP2 SWAP1 PUSH2 0x596 JUMP JUMPDEST SWAP1 POP PUSH1 0x0 DUP3 PUSH1 0x1 SLOAD PUSH2 0x3B2 SWAP2 SWAP1 PUSH2 0x66C JUMP JUMPDEST SWAP1 POP PUSH1 0x0 DUP2 DUP4 PUSH2 0x3C2 SWAP2 SWAP1 PUSH2 0x607 JUMP JUMPDEST SWAP1 POP DUP1 PUSH1 0x0 SLOAD PUSH2 0x3D2 SWAP2 SWAP1 PUSH2 0x638 JUMP JUMPDEST SWAP6 POP PUSH1 0x0 DUP7 GT PUSH2 0x417 JUMPI PUSH1 0x40 MLOAD PUSH32 0x8C379A000000000000000000000000000000000000000000000000000000000 DUP2 MSTORE PUSH1 0x4 ADD PUSH2 0x40E SWAP1 PUSH2 0x547 JUMP JUMPDEST PUSH1 0x40 MLOAD DUP1 SWAP2 SUB SWAP1 REVERT JUMPDEST DUP1 PUSH1 0x0 DUP2 SWAP1 SSTORE POP DUP2 PUSH1 0x1 DUP2 SWAP1 SSTORE POP POP POP POP POP POP SWAP2 SWAP1 POP JUMP JUMPDEST PUSH1 0x0 DUP2 SWAP1 POP SWAP2 SWAP1 POP JUMP JUMPDEST PUSH2 0x442 DUP2 PUSH2 0x42F JUMP JUMPDEST DUP3 MSTORE POP POP JUMP JUMPDEST PUSH1 0x0 PUSH1 0x20 DUP3 ADD SWAP1 POP PUSH2 0x45D PUSH1 0x0 DUP4 ADD DUP5 PUSH2 0x439 JUMP JUMPDEST SWAP3 SWAP2 POP POP JUMP JUMPDEST PUSH1 0x0 PUSH1 0x40 DUP3 ADD SWAP1 POP PUSH2 0x478 PUSH1 0x0 DUP4 ADD DUP6 PUSH2 0x439 JUMP JUMPDEST PUSH2 0x485 PUSH1 0x20 DUP4 ADD DUP5 PUSH2 0x439 JUMP JUMPDEST SWAP4 SWAP3 POP POP POP JUMP JUMPDEST PUSH1 0x0 DUP1 REVERT JUMPDEST PUSH2 0x49A DUP2 PUSH2 0x42F JUMP JUMPDEST DUP2 EQ PUSH2 0x4A5 JUMPI PUSH1 0x0 DUP1 REVERT JUMPDEST POP JUMP JUMPDEST PUSH1 0x0 DUP2 CALLDATALOAD SWAP1 POP PUSH2 0x4B7 DUP2 PUSH2 0x491 JUMP JUMPDEST SWAP3 SWAP2 POP POP JUMP JUMPDEST PUSH1 0x0 PUSH1 0x20 DUP3 DUP5 SUB SLT ISZERO PUSH2 0x4D3 JUMPI PUSH2 0x4D2 PUSH2 0x48C JUMP JUMPDEST JUMPDEST PUSH1 0x0 PUSH2 0x4E1 DUP5 DUP3 DUP6 ADD PUSH2 0x4A8 JUMP JUMPDEST SWAP2 POP POP SWAP3 SWAP2 POP POP JUMP JUMPDEST PUSH1 0x0 DUP3 DUP3 MSTORE PUSH1 0x20 DUP3 ADD SWAP1 POP SWAP3 SWAP2 POP POP JUMP JUMPDEST PUSH32 0x64783D3000000000000000000000000000000000000000000000000000000000 PUSH1 0x0 DUP3 ADD MSTORE POP JUMP JUMPDEST PUSH1 0x0 PUSH2 0x531 PUSH1 0x4 DUP4 PUSH2 0x4EA JUMP JUMPDEST SWAP2 POP PUSH2 0x53C DUP3 PUSH2 0x4FB JUMP JUMPDEST PUSH1 0x20 DUP3 ADD SWAP1 POP SWAP2 SWAP1 POP JUMP JUMPDEST PUSH1 0x0 PUSH1 0x20 DUP3 ADD SWAP1 POP DUP2 DUP2 SUB PUSH1 0x0 DUP4 ADD MSTORE PUSH2 0x560 DUP2 PUSH2 0x524 JUMP JUMPDEST SWAP1 POP SWAP2 SWAP1 POP JUMP JUMPDEST PUSH32 0x4E487B7100000000000000000000000000000000000000000000000000000000 PUSH1 0x0 MSTORE PUSH1 0x11 PUSH1 0x4 MSTORE PUSH1 0x24 PUSH1 0x0 REVERT JUMPDEST PUSH1 0x0 PUSH2 0x5A1 DUP3 PUSH2 0x42F JUMP JUMPDEST SWAP2 POP PUSH2 0x5AC DUP4 PUSH2 0x42F JUMP JUMPDEST SWAP3 POP DUP3 DUP3 MUL PUSH2 0x5BA DUP2 PUSH2 0x42F JUMP JUMPDEST SWAP2 POP DUP3 DUP3 DIV DUP5 EQ DUP4 ISZERO OR PUSH2 0x5D1 JUMPI PUSH2 0x5D0 PUSH2 0x567 JUMP JUMPDEST JUMPDEST POP SWAP3 SWAP2 POP POP JUMP JUMPDEST PUSH32 0x4E487B7100000000000000000000000000000000000000000000000000000000 PUSH1 0x0 MSTORE PUSH1 0x12 PUSH1 0x4 MSTORE PUSH1 0x24 PUSH1 0x0 REVERT JUMPDEST PUSH1 0x0 PUSH2 0x612 DUP3 PUSH2 0x42F JUMP JUMPDEST SWAP2 POP PUSH2 0x61D DUP4 PUSH2 0x42F JUMP JUMPDEST SWAP3 POP DUP3 PUSH2 0x62D JUMPI PUSH2 0x62C PUSH2 0x5D8 JUMP JUMPDEST JUMPDEST DUP3 DUP3 DIV SWAP1 POP SWAP3 SWAP2 POP POP JUMP JUMPDEST PUSH1 0x0 PUSH2 0x643 DUP3 PUSH2 0x42F JUMP JUMPDEST SWAP2 POP PUSH2 0x64E DUP4 PUSH2 0x42F JUMP JUMPDEST SWAP3 POP DUP3 DUP3 SUB SWAP1 POP DUP2 DUP2 GT ISZERO PUSH2 0x666 JUMPI PUSH2 0x665 PUSH2 0x567 JUMP JUMPDEST JUMPDEST SWAP3 SWAP2 POP POP JUMP JUMPDEST PUSH1 0x0 PUSH2 0x677 DUP3 PUSH2 0x42F JUMP JUMPDEST SWAP2 POP PUSH2 0x682 DUP4 PUSH2 0x42F JUMP JUMPDEST SWAP3 POP DUP3 DUP3 ADD SWAP1 POP DUP1 DUP3 GT ISZERO PUSH2 0x69A JUMPI PUSH2 0x699 PUSH2 0x567 JUMP JUMPDEST JUMPDEST SWAP3 SWAP2 POP POP JUMP JUMPDEST PUSH32 0x64793D3000000000000000000000000000000000000000000000000000000000 PUSH1 0x0 DUP3 ADD MSTORE POP JUMP JUMPDEST PUSH1 0x0 PUSH2 0x6D6 PUSH1 0x4 DUP4 PUSH2 0x4EA JUMP JUMPDEST SWAP2 POP PUSH2 0x6E1 DUP3 PUSH2 0x6A0 JUMP JUMPDEST PUSH1 0x20 DUP3 ADD SWAP1 POP SWAP2 SWAP1 POP JUMP JUMPDEST PUSH1 0x0 PUSH1 0x20 DUP3 ADD SWAP1 POP DUP2 DUP2 SUB PUSH1 0x0 DUP4 ADD MSTORE PUSH2 0x705 DUP2 PUSH2 0x6C9 JUMP JUMPDEST SWAP1 POP SWAP2 SWAP1 POP JUMP JUMPDEST PUSH32 0x6E6F207072696365000000000000000000000000000000000000000000000000 PUSH1 0x0 DUP3 ADD MSTORE POP JUMP JUMPDEST PUSH1 0x0 PUSH2 0x742 PUSH1 0x8 DUP4 PUSH2 0x4EA JUMP JUMPDEST SWAP2 POP PUSH2 0x74D DUP3 PUSH2 0x70C JUMP JUMPDEST PUSH1 0x20 DUP3 ADD SWAP1 POP SWAP2 SWAP1 POP JUMP JUMPDEST PUSH1 0x0 PUSH1 0x20 DUP3 ADD SWAP1 POP DUP2 DUP2 SUB PUSH1 0x0 DUP4 ADD MSTORE PUSH2 0x771 DUP2 PUSH2 0x735 JUMP JUMPDEST SWAP1 POP SWAP2 SWAP1 POP JUMP INVALID LOG2 PUSH5 0x6970667358 0x22 SLT KECCAK256 PUSH0 0xFB SWAP5 0xD8 STOP 0xE5 LOG2 0xC8 SWAP5 0xF9 PUSH9 0xB9270193572DBB0629 0xBC DUP5 SSTORE ADDRESS 0xAB 0xDE 0xB7 ADD 0x2B 0xB7 PUSH5 0x5764736F6C PUSH4 0x43000814 STOP CALLER "},"methodIdentifiers":{"FEE_BPS()":"bf333f2c","getPrice()":"98d5fdca","getReserves()":"0902f1ac","reserveX()":"08eabdda","reserveY()":"fadfa65b","swap(uint256)":"94b918de","swapReverse(uint256)":"fec9d0ca"}}}}}