{
  "_format": "hh-sol-artifact-1",
  "contractName": "SimpleDEX",
  "sourceName": "contracts/SimpleDEX.sol",
  "abi": [
    {
      "inputs": [
        {
          "internalType": "uint256",
          "name": "_reserveX",
          "type": "uint256"
        },
        {
          "internalType": "uint256",
          "name": "_reserveY",
          "type": "uint256"
        }
      ],
      "stateMutability": "nonpayable",
      "type": "constructor"
    },
    {
      "inputs": [],
      "name": "FEE_BPS",
      "outputs": [
        {
          "internalType": "uint256",
          "name": "",
          "type": "uint256"
        }
      ],
      "stateMutability": "view",
      "type": "function"
    },
    {
      "inputs": [],
      "name": "getPrice",
      "outputs": [
        {
          "internalType": "uint256",
          "name": "",
          "type": "uint256"
        }
      ],
      "stateMutability": "view",
      "type": "function"
    },
    {
      "inputs": [],
      "name": "getReserves",
      "outputs": [
        {
          "internalType": "uint256",
          "name": "",
          "type": "uint256"
        },
        {
          "internalType": "uint256",
          "name": "",
          "type": "uint256"
        }
      ],
      "stateMutability": "view",
      "type": "function"
    },
    {
      "inputs": [],
      "name": "reserveX",
      "outputs": [
        {
          "internalType": "uint256",
          "name": "",
          "type": "uint256"
        }
      ],
      "stateMutability": "view",
      "type": "function"
    },
    {
      "inputs": [],
      "name": "reserveY",
      "outputs": [
        {
          "internalType": "uint256",
          "name": "",
          "type": "uint256"
        }
      ],
      "stateMutability": "view",
      "type": "function"
    },
    {
      "inputs": [
        {
          "internalType": "uint256",
          "name": "dx",
          "type": "uint256"
        }
      ],
      "name": "swap",
      "outputs": [
        {
          "internalType": "uint256",
          "name": "dy",
          "type": "uint256"
        }
      ],
      "stateMutability": "nonpayable",
      "type": "function"
    },
    {
      "inputs": [
        {
          "internalType": "uint256",
          "name": "dy",
          "type": "uint256"
        }
      ],
      "name": "swapReverse",
      "outputs": [
        {
          "internalType": "uint256",
          "name": "dx",
          "type": "uint256"
        }
      ],
      "stateMutability": "nonpayable",
      "type": "function"
    }
  ],
  "bytecode": "0x608060405234801561001057600080fd5b5060405161087f38038061087f83398181016040528101906100329190610082565b816000819055508060018190555050506100c2565b600080fd5b6000819050919050565b61005f8161004c565b811461006a57600080fd5b50565b60008151905061007c81610056565b92915050565b6000806040838503121561009957610098610047565b5b60006100a78582860161006d565b92505060206100b88582860161006d565b9150509250929050565b6107ae806100d16000396000f3fe608060405234801561001057600080fd5b506004361061007d5760003560e01c806398d5fdca1161005b57806398d5fdca146100ef578063bf333f2c1461010d578063fadfa65b1461012b578063fec9d0ca146101495761007d565b806308eabdda146100825780630902f1ac146100a057806394b918de146100bf575b600080fd5b61008a610179565b6040516100979190610448565b60405180910390f35b6100a861017f565b6040516100b6929190610463565b60405180910390f35b6100d960048036038101906100d491906104bd565b610190565b6040516100e69190610448565b60405180910390f35b6100f76102a3565b6040516101049190610448565b60405180910390f35b610115610311565b6040516101229190610448565b60405180910390f35b610133610316565b6040516101409190610448565b60405180910390f35b610163600480360381019061015e91906104bd565b61031c565b6040516101709190610448565b60405180910390f35b60005481565b600080600054600154915091509091565b60008082116101d4576040517f08c379a00000000000000000000000000000000000000000000000000000000081526004016101cb90610547565b60405180910390fd5b6000612710601e846101e69190610596565b6101f09190610607565b9050600081846102009190610638565b905060006001546000546102149190610596565b9050600082600054610226919061066c565b9050600081836102369190610607565b9050806001546102469190610638565b95506000861161028b576040517f08c379a0000000000000000000000000000000000000000000000000000000008152600401610282906106ec565b60405180910390fd5b81600081905550806001819055505050505050919050565b600080600054116102e9576040517f08c379a00000000000000000000000000000000000000000000000000000000081526004016102e090610758565b60405180910390fd5b600054670de0b6b3a76400006001546103029190610596565b61030c9190610607565b905090565b601e81565b60015481565b6000808211610360576040517f08c379a0000000000000000000000000000000000000000000000000000000008152600401610357906106ec565b60405180910390fd5b6000612710601e846103729190610596565b61037c9190610607565b90506000818461038c9190610638565b905060006001546000546103a09190610596565b90506000826001546103b2919061066c565b9050600081836103c29190610607565b9050806000546103d29190610638565b955060008611610417576040517f08c379a000000000000000000000000000000000000000000000000000000000815260040161040e90610547565b60405180910390fd5b80600081905550816001819055505050505050919050565b6000819050919050565b6104428161042f565b82525050565b600060208201905061045d6000830184610439565b92915050565b60006040820190506104786000830185610439565b6104856020830184610439565b9392505050565b600080fd5b61049a8161042f565b81146104a557600080fd5b50565b6000813590506104b781610491565b92915050565b6000602082840312156104d3576104d261048c565b5b60006104e1848285016104a8565b91505092915050565b600082825260208201905092915050565b7f64783d3000000000000000000000000000000000000000000000000000000000600082015250565b60006105316004836104ea565b915061053c826104fb565b602082019050919050565b6000602082019050818103600083015261056081610524565b9050919050565b7f4e487b7100000000000000000000000000000000000000000000000000000000600052601160045260246000fd5b60006105a18261042f565b91506105ac8361042f565b92508282026105ba8161042f565b915082820484148315176105d1576105d0610567565b5b5092915050565b7f4e487b7100000000000000000000000000000000000000000000000000000000600052601260045260246000fd5b60006106128261042f565b915061061d8361042f565b92508261062d5761062c6105d8565b5b828204905092915050565b60006106438261042f565b915061064e8361042f565b925082820390508181111561066657610665610567565b5b92915050565b60006106778261042f565b91506106828361042f565b925082820190508082111561069a57610699610567565b5b92915050565b7f64793d3000000000000000000000000000000000000000000000000000000000600082015250565b60006106d66004836104ea565b91506106e1826106a0565b602082019050919050565b60006020820190508181036000830152610705816106c9565b9050919050565b7f6e6f207072696365000000000000000000000000000000000000000000000000600082015250565b60006107426008836104ea565b915061074d8261070c565b602082019050919050565b6000602082019050818103600083015261077181610735565b905091905056fea26469706673582212205ffb94d800e5a2c894f968b9270193572dbb0629bc845530abdeb7012bb7645764736f6c63430008140033",
  "linkReferences": {},
  "deployedLinkReferences": {}
}