{
  "_format": "hh-sol-artifact-1",
  "contractName": "UniswapFlashLoanArbitrage",
  "sourceName": "contracts/UniswapFlashLoanArbitrage.sol",
  "abi": [
    {
      "inputs": [
        {
          "internalType": "contract IPoolAddressesProvider",
          "name": "_addressesProvider",
          "type": "address"
        },
        {
          "internalType": "address",
          "name": "_v2Router",
          "type": "address"
        },
        {
          "internalType": "address",
          "name": "_v3Router",
          "type": "address"
        },
        {
          "internalType": "bool",
          "name": "_useV3Router",
          "type": "bool"
        },
        {
          "internalType": "uint24",
          "name": "_defaultPoolFee",
          "type": "uint24"
        },
        {
          "internalType": "uint256",
          "name": "_maxSlippageBps",
          "type": "uint256"
        }
      ],
      "stateMutability": "nonpayable",
      "type": "constructor"
    },
    {
      "anonymous": false,
      "inputs": [
        {
          "indexed": true,
          "internalType": "address",
          "name": "tokenIn",
          "type": "address"
        },
        {
          "indexed": true,
          "internalType": "address",
          "name": "tokenOut",
          "type": "address"
        },
        {
          "indexed": false,
          "internalType": "uint256",
          "name": "amountIn",
          "type": "uint256"
        },
        {
          "indexed": false,
          "internalType": "uint256",
          "name": "amountOut",
          "type": "uint256"
        },
        {
          "indexed": false,
          "internalType": "uint256",
          "name": "profit",
          "type": "uint256"
        }
      ],
      "name": "ArbitrageExecuted",
      "type": "event"
    },
    {
      "anonymous": false,
      "inputs": [
        {
          "indexed": true,
          "internalType": "address",
          "name": "asset",
          "type": "address"
        },
        {
          "indexed": false,
          "internalType": "uint256",
          "name": "amount",
          "type": "uint256"
        },
        {
          "indexed": false,
          "internalType": "uint256",
          "name": "premium",
          "type": "uint256"
        },
        {
          "indexed": false,
          "internalType": "uint256",
          "name": "profit",
          "type": "uint256"
        }
      ],
      "name": "FlashLoanExecuted",
      "type": "event"
    },
    {
      "anonymous": false,
      "inputs": [
        {
          "indexed": true,
          "internalType": "address",
          "name": "previousOwner",
          "type": "address"
        },
        {
          "indexed": true,
          "internalType": "address",
          "name": "newOwner",
          "type": "address"
        }
      ],
      "name": "OwnershipTransferred",
      "type": "event"
    },
    {
      "anonymous": false,
      "inputs": [
        {
          "indexed": true,
          "internalType": "address",
          "name": "token",
          "type": "address"
        },
        {
          "indexed": false,
          "internalType": "uint256",
          "name": "amount",
          "type": "uint256"
        }
      ],
      "name": "ProfitWithdrawn",
      "type": "event"
    },
    {
      "inputs": [],
      "name": "ADDRESSES_PROVIDER",
      "outputs": [
        {
          "internalType": "contract IPoolAddressesProvider",
          "name": "",
          "type": "address"
        }
      ],
      "stateMutability": "view",
      "type": "function"
    },
    {
      "inputs": [],
      "name": "POOL",
      "outputs": [
        {
          "internalType": "contract IPool",
          "name": "",
          "type": "address"
        }
      ],
      "stateMutability": "view",
      "type": "function"
    },
    {
      "inputs": [],
      "name": "UNISWAP_V2_ROUTER",
      "outputs": [
        {
          "internalType": "contract IUniswapV2Router",
          "name": "",
          "type": "address"
        }
      ],
      "stateMutability": "view",
      "type": "function"
    },
    {
      "inputs": [],
      "name": "UNISWAP_V3_ROUTER",
      "outputs": [
        {
          "internalType": "contract ISwapRouter",
          "name": "",
          "type": "address"
        }
      ],
      "stateMutability": "view",
      "type": "function"
    },
    {
      "inputs": [],
      "name": "defaultPoolFee",
      "outputs": [
        {
          "internalType": "uint24",
          "name": "",
          "type": "uint24"
        }
      ],
      "stateMutability": "view",
      "type": "function"
    },
    {
      "inputs": [
        {
          "internalType": "address",
          "name": "token",
          "type": "address"
        }
      ],
      "name": "emergencyWithdraw",
      "outputs": [],
      "stateMutability": "nonpayable",
      "type": "function"
    },
    {
      "inputs": [
        {
          "internalType": "address",
          "name": "asset",
          "type": "address"
        },
        {
          "internalType": "uint256",
          "name": "amount",
          "type": "uint256"
        },
        {
          "internalType": "uint256",
          "name": "premium",
          "type": "uint256"
        },
        {
          "internalType": "address",
          "name": "",
          "type": "address"
        },
        {
          "internalType": "bytes",
          "name": "params",
          "type": "bytes"
        }
      ],
      "name": "executeOperation",
      "outputs": [
        {
          "internalType": "bool",
          "name": "",
          "type": "bool"
        }
      ],
      "stateMutability": "nonpayable",
      "type": "function"
    },
    {
      "inputs": [
        {
          "internalType": "address",
          "name": "token",
          "type": "address"
        }
      ],
      "name": "getBalance",
      "outputs": [
        {
          "internalType": "uint256",
          "name": "",
          "type": "uint256"
        }
      ],
      "stateMutability": "view",
      "type": "function"
    },
    {
      "inputs": [
        {
          "internalType": "uint256",
          "name": "amountIn",
          "type": "uint256"
        },
        {
          "internalType": "address[]",
          "name": "path",
          "type": "address[]"
        }
      ],
      "name": "getQuoteV2",
      "outputs": [
        {
          "internalType": "uint256[]",
          "name": "amounts",
          "type": "uint256[]"
        }
      ],
      "stateMutability": "view",
      "type": "function"
    },
    {
      "inputs": [],
      "name": "maxSlippageBps",
      "outputs": [
        {
          "internalType": "uint256",
          "name": "",
          "type": "uint256"
        }
      ],
      "stateMutability": "view",
      "type": "function"
    },
    {
      "inputs": [],
      "name": "owner",
      "outputs": [
        {
          "internalType": "address",
          "name": "",
          "type": "address"
        }
      ],
      "stateMutability": "view",
      "type": "function"
    },
    {
      "inputs": [],
      "name": "renounceOwnership",
      "outputs": [],
      "stateMutability": "nonpayable",
      "type": "function"
    },
    {
      "inputs": [
        {
          "internalType": "address",
          "name": "_token",
          "type": "address"
        },
        {
          "internalType": "uint256",
          "name": "_amount",
          "type": "uint256"
        },
        {
          "internalType": "address",
          "name": "_tokenIn",
          "type": "address"
        },
        {
          "internalType": "address",
          "name": "_tokenOut",
          "type": "address"
        },
        {
          "internalType": "uint256",
          "name": "_expectedProfit",
          "type": "uint256"
        }
      ],
      "name": "requestArbitrageLoan",
      "outputs": [],
      "stateMutability": "nonpayable",
      "type": "function"
    },
    {
      "inputs": [
        {
          "internalType": "address",
          "name": "_token",
          "type": "address"
        },
        {
          "internalType": "uint256",
          "name": "_amount",
          "type": "uint256"
        },
        {
          "internalType": "address[]",
          "name": "_swapPath",
          "type": "address[]"
        },
        {
          "internalType": "uint256",
          "name": "_expectedProfit",
          "type": "uint256"
        }
      ],
      "name": "requestArbitrageLoanWithPath",
      "outputs": [],
      "stateMutability": "nonpayable",
      "type": "function"
    },
    {
      "inputs": [
        {
          "internalType": "address",
          "name": "newOwner",
          "type": "address"
        }
      ],
      "name": "transferOwnership",
      "outputs": [],
      "stateMutability": "nonpayable",
      "type": "function"
    },
    {
      "inputs": [
        {
          "internalType": "bool",
          "name": "_useV3Router",
          "type": "bool"
        },
        {
          "internalType": "uint24",
          "name": "_defaultPoolFee",
          "type": "uint24"
        },
        {
          "internalType": "uint256",
          "name": "_maxSlippageBps",
          "type": "uint256"
        }
      ],
      "name": "updateConfig",
      "outputs": [],
      "stateMutability": "nonpayable",
      "type": "function"
    },
    {
      "inputs": [],
      "name": "useV3Router",
      "outputs": [
        {
          "internalType": "bool",
          "name": "",
          "type": "bool"
        }
      ],
      "stateMutability": "view",
      "type": "function"
    },
    {
      "inputs": [
        {
          "internalType": "address",
          "name": "token",
          "type": "address"
        }
      ],
      "name": "withdrawProfit",
      "outputs": [],
      "stateMutability": "nonpayable",
      "type": "function"
    }
  ],
  "bytecode": "0x61010080604052346101db5760c0816115fb803803809161002082856101f4565b8339810103126101db5780516001600160a01b038116918282036101db5761004a6020820161022d565b926100576040830161022d565b916060810151918215158093036101db5760808201519162ffffff831683036101db5760049160a06020920151966080526040519283809263026b1d5f60e01b82525afa9081156101e8576000916101a9575b5060018060a01b031660a052600160005560015492604051953360018060a01b0386167f8be0079c531659141344cd1fd0a4f28419497f9722a3daafe3b4186f6b6457e0600080a36001600160a01b0390811660c0521660e05260a09190911b60ff60a01b166001600160c01b03199092163363ffffffff60a01b1916179190911760a89190911b62ffffff60a81b16176001556002556113b990816102428239608051816110e6015260a05181818161046d015281816106f80152818161083b0152610d5f015260c0518181816102830152818161037301528181610f920152611077015260e05181818161064201528181610b990152610cf70152f35b90506020813d6020116101e0575b816101c4602093836101f4565b810103126101db576101d59061022d565b386100aa565b600080fd5b3d91506101b7565b6040513d6000823e3d90fd5b601f909101601f19168101906001600160401b0382119082101761021757604052565b634e487b7160e01b600052604160045260246000fd5b51906001600160a01b03821682036101db5756fe608080604052600436101561001357600080fd5b600090813560e01c9081630542975c146110d2575080630f5dc0fa146110ac5780631b11d0ff14610ab65780632341d1db14610a4857806324e26241146108e457806325f1056214610778578063289323fd1461067157806341c64a2f1461062c5780636f60a6dd146106065780636ff1c9bc146104f9578063715018a61461049c5780637535d246146104575780638898a1b6146102db5780638da5cb5b146102b2578063a82ed9ec1461026d578063c4aa73951461024f578063f2fde38b146101865763f8b2cb4f146100e757600080fd5b346101835760203660031901126101835760249060206001600160a01b0361010d611115565b16604051938480926370a0823160e01b82523060048301525afa908115610177579061013f575b602090604051908152f35b506020813d60201161016f575b8161015960209383611155565b8101031261016a5760209051610134565b600080fd5b3d915061014c565b604051903d90823e3d90fd5b80fd5b5034610183576020366003190112610183576101a0611115565b6101a8611306565b6001600160a01b031680156101fb57600180546001600160a01b0319811683179091556001600160a01b03167f8be0079c531659141344cd1fd0a4f28419497f9722a3daafe3b4186f6b6457e08380a380f35b60405162461bcd60e51b815260206004820152602660248201527f4f776e61626c653a206e6577206f776e657220697320746865207a65726f206160448201526564647265737360d01b6064820152608490fd5b50346101835780600319360112610183576020600254604051908152f35b50346101835780600319360112610183576040517f00000000000000000000000000000000000000000000000000000000000000006001600160a01b03168152602090f35b50346101835780600319360112610183576001546040516001600160a01b039091168152602090f35b50346101835760403660031901126101835760243567ffffffffffffffff811161045357366023820112156104535780600401359067ffffffffffffffff821161044f573660248360051b8301011161044f579082604051809363d06ca61f60e01b8252836044830160043560048501526040602485015252602460648301910193835b81811061041e5750929350909150819003817f00000000000000000000000000000000000000000000000000000000000000006001600160a01b03165afa9081156104135782916103f1575b5090604051918291602083016020845282518091526020604085019301915b8181106103d8575050500390f35b82518452859450602093840193909201916001016103ca565b61040d91503d8084833e6104058183611155565b81019061128c565b386103ab565b6040513d84823e3d90fd5b909350915060019060209081906001600160a01b0361043c88611141565b168152019401910192859285929461035f565b8280fd5b5080fd5b50346101835780600319360112610183576040517f00000000000000000000000000000000000000000000000000000000000000006001600160a01b03168152602090f35b50346101835780600319360112610183576104b5611306565b600180546001600160a01b0319811690915581906001600160a01b03167f8be0079c531659141344cd1fd0a4f28419497f9722a3daafe3b4186f6b6457e08280a380f35b503461018357602036600319011261018357610513611115565b61051b611306565b6040516370a0823160e01b81523060048201526001600160a01b039190911690602081602481855afa9081156105fb5783916105c7575b5060015460405163a9059cbb60e01b81526001600160a01b0390911660048201526024810191909152906020908290818581604481015b03925af180156104135761059b575080f35b6105bc9060203d6020116105c0575b6105b48183611155565b8101906111c8565b5080f35b503d6105aa565b90506020813d6020116105f3575b816105e260209383611155565b8101031261016a5751610589610552565b3d91506105d5565b6040513d85823e3d90fd5b5034610183578060031936011261018357602062ffffff60015460a81c16604051908152f35b50346101835780600319360112610183576040517f00000000000000000000000000000000000000000000000000000000000000006001600160a01b03168152602090f35b50346101835760a0366003190112610183578061068c611115565b6044356001600160a01b03811691908290036107745762ffffff6106ae61112b565b6001549060405194602086015260018060a01b03166040850152608435606085015260ff8160a01c161515608085015260a81c1660a083015260a082526106f660c083611155565b7f00000000000000000000000000000000000000000000000000000000000000006001600160a01b031691823b1561077257610750928492836040518096819582946310ac2ddf60e21b845260243590306004860161121d565b03925af18015610413576107615750f35b8161076b91611155565b6101835780f35b505b5050fd5b503461018357608036600319011261018357610792611115565b60443567ffffffffffffffff811161044f573660238201121561044f578060040135906107be8261118d565b916107cc6040519384611155565b8083526024602084019160051b830101913683116108e0579060248694939201905b8282106108bf5750505091610839610817936040519485916080602084015260a08301906111e0565b606435604083015284606083015284608083015203601f198101855284611155565b7f00000000000000000000000000000000000000000000000000000000000000006001600160a01b031692833b1561044f57610893938392836040518097819582946310ac2ddf60e21b845260243590306004860161121d565b03925af180156108b2576108a45780f35b6108ad91611155565b388180f35b50604051903d90823e3d90fd5b8192939450602091906108d28392611141565b8152019101859392916107ee565b8580fd5b5034610183576020366003190112610183576108fe611115565b610906611306565b6040516370a0823160e01b81523060048201526001600160a01b039190911690602081602481855afa9081156105fb578391610a16575b5080156109d85760015460405163a9059cbb60e01b81526001600160a01b039091166004820152602481018290529060208260448187875af19081156109cd577f016e128b6bdadd9e9068abd0b18db2fc8b27ed3dbced50e4aa6cc0a6934251ab926020926109b2575b50604051908152a280f35b6109c890833d85116105c0576105b48183611155565b6109a7565b6040513d86823e3d90fd5b60405162461bcd60e51b81526020600482015260166024820152754e6f2062616c616e636520746f20776974686472617760501b6044820152606490fd5b90506020813d602011610a40575b81610a3160209383611155565b8101031261044f57513861093d565b3d9150610a24565b5034610183576060366003190112610183576004358015158091036104535760243562ffffff8116810361044f57610a7e611306565b6001805463ffffffff60a01b191660a09390931b60ff60a01b169290921760a89190911b62ffffff60a81b1617905560443560025580f35b50346101835760a036600319011261018357610ad0611115565b6024359060443590610ae061112b565b506084359267ffffffffffffffff84116110a857366023850112156110a857836004013567ffffffffffffffff81116108e05784013660248201116108e05760a090859003126110a857610b3660248501611141565b93610b4360448201611141565b9360848201359081151582036110a45760a48301359662ffffff8816809803610ecb576001600160a01b039687169796169584820195868611610eeb576001600160a01b031692801561106e57610bf76020878c7f00000000000000000000000000000000000000000000000000000000000000006001600160a01b03165b60405163095ea7b360e01b81526001600160a01b03909116600482015260248101929092529092839190829081906044820190565b0391895af1801561106357611046575b5015610eff5761012c420190814211610eeb57610c238661135e565b9060405192610100840184811067ffffffffffffffff821117610ed757908c9392916040528a855260208501918c83526040860190815262ffffff60608701913083526080880193845260a08801948c865260c0890196875260e089019788526040519863414bf38960e01b8a5260018060a01b0390511660048a015260018060a01b0390511660248901525116604487015260018060a01b0390511660648601525160848501525160a48401525160c483015260018060a01b0390511660e4820152602081610104818c60018060a01b037f0000000000000000000000000000000000000000000000000000000000000000165af1908115610e52578991610ea1575b50945b80861115610e98576064610d3e82886111a5565b945b01358410610e5d5760405163095ea7b360e01b81526001600160a01b037f000000000000000000000000000000000000000000000000000000000000000016600482015260248101919091526020816044818c875af18015610e5257938093927fe03a36d920ad8de5a978a8f1917280e202ae9193e6dc19e08ef1f6c2a051eba492610e27967f0479602bef4bb9277c21beadda23c5e4db7f0b2d4877d00070d6e0739e8c7c0e9a9b9c50610e35575b50604080518881526020810192909252810191909152606090a2604051938493846040919493926060820195825260208201520152565b0390a3602060405160018152f35b610e4d9060203d6020116105c0576105b48183611155565b610df0565b6040513d8b823e3d90fd5b60405162461bcd60e51b8152602060048201526013602482015272125b9cdd59999a58da595b9d081c1c9bd99a5d606a1b6044820152606490fd5b60648994610d40565b90506020813d602011610ecf575b81610ebc60209383611155565b81010312610ecb575138610d27565b8880fd5b3d9150610eaf565b634e487b7160e01b8d52604160045260248dfd5b634e487b7160e01b8a52601160045260248afd5b50604051610f0e606082611155565b60028152602081016040368237815115610ff05787905280516001101561103257876040820152610f3e8561135e565b61012c420180421161101e57918a91610f7f9360405194859384936338ed173960e01b85528b6004860152602485015260a0604485015260a48401906111e0565b30606484015260848301919091520381837f00000000000000000000000000000000000000000000000000000000000000006001600160a01b03165af1908115610e52578991611004575b5080516000198101908111610eeb578151811015610ff05760051b016020015194610d2a565b634e487b7160e01b8a52603260045260248afd5b61101891503d808b833e6104058183611155565b38610fca565b634e487b7160e01b8b52601160045260248bfd5b634e487b7160e01b89526032600452602489fd5b61105e9060203d6020116105c0576105b48183611155565b610c07565b6040513d8d823e3d90fd5b610bf76020878c7f00000000000000000000000000000000000000000000000000000000000000006001600160a01b0316610bc2565b8780fd5b8480fd5b5034610183578060031936011261018357602060ff60015460a01c166040519015158152f35b9050346104535781600319360112610453577f00000000000000000000000000000000000000000000000000000000000000006001600160a01b03168152602090f35b600435906001600160a01b038216820361016a57565b606435906001600160a01b038216820361016a57565b35906001600160a01b038216820361016a57565b90601f8019910116810190811067ffffffffffffffff82111761117757604052565b634e487b7160e01b600052604160045260246000fd5b67ffffffffffffffff81116111775760051b60200190565b919082039182116111b257565b634e487b7160e01b600052601160045260246000fd5b9081602091031261016a5751801515810361016a5790565b906020808351928381520192019060005b8181106111fe5750505090565b82516001600160a01b03168452602093840193909201916001016111f1565b6001600160a01b03918216815291166020820152604081019190915260a060608201819052825190820181905290929160005b828110611276575050608060c082600082819588010152601f8019910116850101930152565b80602080928401015160c0828801015201611250565b60208183031261016a5780519067ffffffffffffffff821161016a57019080601f8301121561016a5781516112c08161118d565b926112ce6040519485611155565b81845260208085019260051b82010192831161016a57602001905b8282106112f65750505090565b81518152602091820191016112e9565b6001546001600160a01b0316330361131a57565b606460405162461bcd60e51b815260206004820152602060248201527f4f776e61626c653a2063616c6c6572206973206e6f7420746865206f776e65726044820152fd5b600254908181029181830414811517156111b2576127106113809204906111a5565b9056fea26469706673582212204f613934dabab3bf4fc2be357262404c7fef15830b0c379f1c04873d616e587864736f6c634300081c0033",
  "linkReferences": {},
  "deployedLinkReferences": {}
}