{"contracts/UniswapFlashLoanArbitrage.sol":{"UniswapFlashLoanArbitrage":{"abi":[{"inputs":[{"internalType":"contract IPoolAddressesProvider","name":"_addressesProvider","type":"address"},{"internalType":"address","name":"_v2Router","type":"address"},{"internalType":"address","name":"_v3Router","type":"address"},{"internalType":"bool","name":"_useV3Router","type":"bool"},{"internalType":"uint24","name":"_defaultPoolFee","type":"uint24"},{"internalType":"uint256","name":"_maxSlippageBps","type":"uint256"}],"stateMutability":"nonpayable","type":"constructor"},{"anonymous":false,"inputs":[{"indexed":true,"internalType":"address","name":"tokenIn","type":"address"},{"indexed":true,"internalType":"address","name":"tokenOut","type":"address"},{"indexed":false,"internalType":"uint256","name":"amountIn","type":"uint256"},{"indexed":false,"internalType":"uint256","name":"amountOut","type":"uint256"},{"indexed":false,"internalType":"uint256","name":"profit","type":"uint256"}],"name":"ArbitrageExecuted","type":"event"},{"anonymous":false,"inputs":[{"indexed":true,"internalType":"address","name":"asset","type":"address"},{"indexed":false,"internalType":"uint256","name":"amount","type":"uint256"},{"indexed":false,"internalType":"uint256","name":"premium","type":"uint256"},{"indexed":false,"internalType":"uint256","name":"profit","type":"uint256"}],"name":"FlashLoanExecuted","type":"event"},{"anonymous":false,"inputs":[{"indexed":true,"internalType":"address","name":"previousOwner","type":"address"},{"indexed":true,"internalType":"address","name":"newOwner","type":"address"}],"name":"OwnershipTransferred","type":"event"},{"anonymous":false,"inputs":[{"indexed":true,"internalType":"address","name":"token","type":"address"},{"indexed":false,"internalType":"uint256","name":"amount","type":"uint256"}],"name":"ProfitWithdrawn","type":"event"},{"inputs":[],"name":"ADDRESSES_PROVIDER","outputs":[{"internalType":"contract IPoolAddressesProvider","name":"","type":"address"}],"stateMutability":"view","type":"function"},{"inputs":[],"name":"POOL","outputs":[{"internalType":"contract IPool","name":"","type":"address"}],"stateMutability":"view","type":"function"},{"inputs":[],"name":"UNISWAP_V2_ROUTER","outputs":[{"internalType":"contract IUniswapV2Router","name":"","type":"address"}],"stateMutability":"view","type":"function"},{"inputs":[],"name":"UNISWAP_V3_ROUTER","outputs":[{"internalType":"contract ISwapRouter","name":"","type":"address"}],"stateMutability":"view","type":"function"},{"inputs":[],"name":"defaultPoolFee","outputs":[{"internalType":"uint24","name":"","type":"uint24"}],"stateMutability":"view","type":"function"},{"inputs":[{"internalType":"address","name":"token","type":"address"}],"name":"emergencyWithdraw","outputs":[],"stateMutability":"nonpayable","type":"function"},{"inputs":[{"internalType":"address","name":"asset","type":"address"},{"internalType":"uint256","name":"amount","type":"uint256"},{"internalType":"uint256","name":"premium","type":"uint256"},{"internalType":"address","name":"","type":"address"},{"internalType":"bytes","name":"params","type":"bytes"}],"name":"executeOperation","outputs":[{"internalType":"bool","name":"","type":"bool"}],"stateMutability":"nonpayable","type":"function"},{"inputs":[{"internalType":"address","name":"token","type":"address"}],"name":"getBalance","outputs":[{"internalType":"uint256","name":"","type":"uint256"}],"stateMutability":"view","type":"function"},{"inputs":[{"internalType":"uint256","name":"amountIn","type":"uint256"},{"internalType":"address[]","name":"path","type":"address[]"}],"name":"getQuoteV2","outputs":[{"internalType":"uint256[]","name":"amounts","type":"uint256[]"}],"stateMutability":"view","type":"function"},{"inputs":[],"name":"maxSlippageBps","outputs":[{"internalType":"uint256","name":"","type":"uint256"}],"stateMutability":"view","type":"function"},{"inputs":[],"name":"owner","outputs":[{"internalType":"address","name":"","type":"address"}],"stateMutability":"view","type":"function"},{"inputs":[],"name":"renounceOwnership","outputs":[],"stateMutability":"nonpayable","type":"function"},{"inputs":[{"internalType":"address","name":"_token","type":"address"},{"internalType":"uint256","name":"_amount","type":"uint256"},{"internalType":"address","name":"_tokenIn","type":"address"},{"internalType":"address","name":"_tokenOut","type":"address"},{"internalType":"uint256","name":"_expectedProfit","type":"uint256"}],"name":"requestArbitrageLoan","outputs":[],"stateMutability":"nonpayable","type":"function"},{"inputs":[{"internalType":"address","name":"_token","type":"address"},{"internalType":"uint256","name":"_amount","type":"uint256"},{"internalType":"address[]","name":"_swapPath","type":"address[]"},{"internalType":"uint256","name":"_expectedProfit","type":"uint256"}],"name":"requestArbitrageLoanWithPath","outputs":[],"stateMutability":"nonpayable","type":"function"},{"inputs":[{"internalType":"address","name":"newOwner","type":"address"}],"name":"transferOwnership","outputs":[],"stateMutability":"nonpayable","type":"function"},{"inputs":[{"internalType":"bool","name":"_useV3Router","type":"bool"},{"internalType":"uint24","name":"_defaultPoolFee","type":"uint24"},{"internalType":"uint256","name":"_maxSlippageBps","type":"uint256"}],"name":"updateConfig","outputs":[],"stateMutability":"nonpayable","type":"function"},{"inputs":[],"name":"useV3Router","outputs":[{"internalType":"bool","name":"","type":"bool"}],"stateMutability":"view","type":"function"},{"inputs":[{"internalType":"address","name":"token","type":"address"}],"name":"withdrawProfit","outputs":[],"stateMutability":"nonpayable","type":"function"}],"evm":{"bytecode":{"linkReferences":{},"object":"61010080604052346101db5760c0816115fb803803809161002082856101f4565b8339810103126101db5780516001600160a01b038116918282036101db5761004a6020820161022d565b926100576040830161022d565b916060810151918215158093036101db5760808201519162ffffff831683036101db5760049160a06020920151966080526040519283809263026b1d5f60e01b82525afa9081156101e8576000916101a9575b5060018060a01b031660a052600160005560015492604051953360018060a01b0386167f8be0079c531659141344cd1fd0a4f28419497f9722a3daafe3b4186f6b6457e0600080a36001600160a01b0390811660c0521660e05260a09190911b60ff60a01b166001600160c01b03199092163363ffffffff60a01b1916179190911760a89190911b62ffffff60a81b16176001556002556113b990816102428239608051816110e6015260a05181818161046d015281816106f80152818161083b0152610d5f015260c0518181816102830152818161037301528181610f920152611077015260e05181818161064201528181610b990152610cf70152f35b90506020813d6020116101e0575b816101c4602093836101f4565b810103126101db576101d59061022d565b386100aa565b600080fd5b3d91506101b7565b6040513d6000823e3d90fd5b601f909101601f19168101906001600160401b0382119082101761021757604052565b634e487b7160e01b600052604160045260246000fd5b51906001600160a01b03821682036101db5756fe608080604052600436101561001357600080fd5b600090813560e01c9081630542975c146110d2575080630f5dc0fa146110ac5780631b11d0ff14610ab65780632341d1db14610a4857806324e26241146108e457806325f1056214610778578063289323fd1461067157806341c64a2f1461062c5780636f60a6dd146106065780636ff1c9bc146104f9578063715018a61461049c5780637535d246146104575780638898a1b6146102db5780638da5cb5b146102b2578063a82ed9ec1461026d578063c4aa73951461024f578063f2fde38b146101865763f8b2cb4f146100e757600080fd5b346101835760203660031901126101835760249060206001600160a01b0361010d611115565b16604051938480926370a0823160e01b82523060048301525afa908115610177579061013f575b602090604051908152f35b506020813d60201161016f575b8161015960209383611155565b8101031261016a5760209051610134565b600080fd5b3d915061014c565b604051903d90823e3d90fd5b80fd5b5034610183576020366003190112610183576101a0611115565b6101a8611306565b6001600160a01b031680156101fb57600180546001600160a01b0319811683179091556001600160a01b03167f8be0079c531659141344cd1fd0a4f28419497f9722a3daafe3b4186f6b6457e08380a380f35b60405162461bcd60e51b815260206004820152602660248201527f4f776e61626c653a206e6577206f776e657220697320746865207a65726f206160448201526564647265737360d01b6064820152608490fd5b50346101835780600319360112610183576020600254604051908152f35b50346101835780600319360112610183576040517f00000000000000000000000000000000000000000000000000000000000000006001600160a01b03168152602090f35b50346101835780600319360112610183576001546040516001600160a01b039091168152602090f35b50346101835760403660031901126101835760243567ffffffffffffffff811161045357366023820112156104535780600401359067ffffffffffffffff821161044f573660248360051b8301011161044f579082604051809363d06ca61f60e01b8252836044830160043560048501526040602485015252602460648301910193835b81811061041e5750929350909150819003817f00000000000000000000000000000000000000000000000000000000000000006001600160a01b03165afa9081156104135782916103f1575b5090604051918291602083016020845282518091526020604085019301915b8181106103d8575050500390f35b82518452859450602093840193909201916001016103ca565b61040d91503d8084833e6104058183611155565b81019061128c565b386103ab565b6040513d84823e3d90fd5b909350915060019060209081906001600160a01b0361043c88611141565b168152019401910192859285929461035f565b8280fd5b5080fd5b50346101835780600319360112610183576040517f00000000000000000000000000000000000000000000000000000000000000006001600160a01b03168152602090f35b50346101835780600319360112610183576104b5611306565b600180546001600160a01b0319811690915581906001600160a01b03167f8be0079c531659141344cd1fd0a4f28419497f9722a3daafe3b4186f6b6457e08280a380f35b503461018357602036600319011261018357610513611115565b61051b611306565b6040516370a0823160e01b81523060048201526001600160a01b039190911690602081602481855afa9081156105fb5783916105c7575b5060015460405163a9059cbb60e01b81526001600160a01b0390911660048201526024810191909152906020908290818581604481015b03925af180156104135761059b575080f35b6105bc9060203d6020116105c0575b6105b48183611155565b8101906111c8565b5080f35b503d6105aa565b90506020813d6020116105f3575b816105e260209383611155565b8101031261016a5751610589610552565b3d91506105d5565b6040513d85823e3d90fd5b5034610183578060031936011261018357602062ffffff60015460a81c16604051908152f35b50346101835780600319360112610183576040517f00000000000000000000000000000000000000000000000000000000000000006001600160a01b03168152602090f35b50346101835760a0366003190112610183578061068c611115565b6044356001600160a01b03811691908290036107745762ffffff6106ae61112b565b6001549060405194602086015260018060a01b03166040850152608435606085015260ff8160a01c161515608085015260a81c1660a083015260a082526106f660c083611155565b7f00000000000000000000000000000000000000000000000000000000000000006001600160a01b031691823b1561077257610750928492836040518096819582946310ac2ddf60e21b845260243590306004860161121d565b03925af18015610413576107615750f35b8161076b91611155565b6101835780f35b505b5050fd5b503461018357608036600319011261018357610792611115565b60443567ffffffffffffffff811161044f573660238201121561044f578060040135906107be8261118d565b916107cc6040519384611155565b8083526024602084019160051b830101913683116108e0579060248694939201905b8282106108bf5750505091610839610817936040519485916080602084015260a08301906111e0565b606435604083015284606083015284608083015203601f198101855284611155565b7f00000000000000000000000000000000000000000000000000000000000000006001600160a01b031692833b1561044f57610893938392836040518097819582946310ac2ddf60e21b845260243590306004860161121d565b03925af180156108b2576108a45780f35b6108ad91611155565b388180f35b50604051903d90823e3d90fd5b8192939450602091906108d28392611141565b8152019101859392916107ee565b8580fd5b5034610183576020366003190112610183576108fe611115565b610906611306565b6040516370a0823160e01b81523060048201526001600160a01b039190911690602081602481855afa9081156105fb578391610a16575b5080156109d85760015460405163a9059cbb60e01b81526001600160a01b039091166004820152602481018290529060208260448187875af19081156109cd577f016e128b6bdadd9e9068abd0b18db2fc8b27ed3dbced50e4aa6cc0a6934251ab926020926109b2575b50604051908152a280f35b6109c890833d85116105c0576105b48183611155565b6109a7565b6040513d86823e3d90fd5b60405162461bcd60e51b81526020600482015260166024820152754e6f2062616c616e636520746f20776974686472617760501b6044820152606490fd5b90506020813d602011610a40575b81610a3160209383611155565b8101031261044f57513861093d565b3d9150610a24565b5034610183576060366003190112610183576004358015158091036104535760243562ffffff8116810361044f57610a7e611306565b6001805463ffffffff60a01b191660a09390931b60ff60a01b169290921760a89190911b62ffffff60a81b1617905560443560025580f35b50346101835760a036600319011261018357610ad0611115565b6024359060443590610ae061112b565b506084359267ffffffffffffffff84116110a857366023850112156110a857836004013567ffffffffffffffff81116108e05784013660248201116108e05760a090859003126110a857610b3660248501611141565b93610b4360448201611141565b9360848201359081151582036110a45760a48301359662ffffff8816809803610ecb576001600160a01b039687169796169584820195868611610eeb576001600160a01b031692801561106e57610bf76020878c7f00000000000000000000000000000000000000000000000000000000000000006001600160a01b03165b60405163095ea7b360e01b81526001600160a01b03909116600482015260248101929092529092839190829081906044820190565b0391895af1801561106357611046575b5015610eff5761012c420190814211610eeb57610c238661135e565b9060405192610100840184811067ffffffffffffffff821117610ed757908c9392916040528a855260208501918c83526040860190815262ffffff60608701913083526080880193845260a08801948c865260c0890196875260e089019788526040519863414bf38960e01b8a5260018060a01b0390511660048a015260018060a01b0390511660248901525116604487015260018060a01b0390511660648601525160848501525160a48401525160c483015260018060a01b0390511660e4820152602081610104818c60018060a01b037f0000000000000000000000000000000000000000000000000000000000000000165af1908115610e52578991610ea1575b50945b80861115610e98576064610d3e82886111a5565b945b01358410610e5d5760405163095ea7b360e01b81526001600160a01b037f000000000000000000000000000000000000000000000000000000000000000016600482015260248101919091526020816044818c875af18015610e5257938093927fe03a36d920ad8de5a978a8f1917280e202ae9193e6dc19e08ef1f6c2a051eba492610e27967f0479602bef4bb9277c21beadda23c5e4db7f0b2d4877d00070d6e0739e8c7c0e9a9b9c50610e35575b50604080518881526020810192909252810191909152606090a2604051938493846040919493926060820195825260208201520152565b0390a3602060405160018152f35b610e4d9060203d6020116105c0576105b48183611155565b610df0565b6040513d8b823e3d90fd5b60405162461bcd60e51b8152602060048201526013602482015272125b9cdd59999a58da595b9d081c1c9bd99a5d606a1b6044820152606490fd5b60648994610d40565b90506020813d602011610ecf575b81610ebc60209383611155565b81010312610ecb575138610d27565b8880fd5b3d9150610eaf565b634e487b7160e01b8d52604160045260248dfd5b634e487b7160e01b8a52601160045260248afd5b50604051610f0e606082611155565b60028152602081016040368237815115610ff05787905280516001101561103257876040820152610f3e8561135e565b61012c420180421161101e57918a91610f7f9360405194859384936338ed173960e01b85528b6004860152602485015260a0604485015260a48401906111e0565b30606484015260848301919091520381837f00000000000000000000000000000000000000000000000000000000000000006001600160a01b03165af1908115610e52578991611004575b5080516000198101908111610eeb578151811015610ff05760051b016020015194610d2a565b634e487b7160e01b8a52603260045260248afd5b61101891503d808b833e6104058183611155565b38610fca565b634e487b7160e01b8b52601160045260248bfd5b634e487b7160e01b89526032600452602489fd5b61105e9060203d6020116105c0576105b48183611155565b610c07565b6040513d8d823e3d90fd5b610bf76020878c7f00000000000000000000000000000000000000000000000000000000000000006001600160a01b0316610bc2565b8780fd5b8480fd5b5034610183578060031936011261018357602060ff60015460a01c166040519015158152f35b9050346104535781600319360112610453577f00000000000000000000000000000000000000000000000000000000000000006001600160a01b03168152602090f35b600435906001600160a01b038216820361016a57565b606435906001600160a01b038216820361016a57565b35906001600160a01b038216820361016a57565b90601f8019910116810190811067ffffffffffffffff82111761117757604052565b634e487b7160e01b600052604160045260246000fd5b67ffffffffffffffff81116111775760051b60200190565b919082039182116111b257565b634e487b7160e01b600052601160045260246000fd5b9081602091031261016a5751801515810361016a5790565b906020808351928381520192019060005b8181106111fe5750505090565b82516001600160a01b03168452602093840193909201916001016111f1565b6001600160a01b03918216815291166020820152604081019190915260a060608201819052825190820181905290929160005b828110611276575050608060c082600082819588010152601f8019910116850101930152565b80602080928401015160c0828801015201611250565b60208183031261016a5780519067ffffffffffffffff821161016a57019080601f8301121561016a5781516112c08161118d565b926112ce6040519485611155565b81845260208085019260051b82010192831161016a57602001905b8282106112f65750505090565b81518152602091820191016112e9565b6001546001600160a01b0316330361131a57565b606460405162461bcd60e51b815260206004820152602060248201527f4f776e61626c653a2063616c6c6572206973206e6f7420746865206f776e65726044820152fd5b600254908181029181830414811517156111b2576127106113809204906111a5565b9056fea26469706673582212204f613934dabab3bf4fc2be357262404c7fef15830b0c379f1c04873d616e587864736f6c634300081c0033","opcodes":"PUSH2 0x100 DUP1 PUSH1 0x40 MSTORE CALLVALUE PUSH2 0x1DB JUMPI PUSH1 0xC0 DUP2 PUSH2 0x15FB DUP1 CODESIZE SUB DUP1 SWAP2 PUSH2 0x20 DUP3 DUP6 PUSH2 0x1F4 JUMP JUMPDEST DUP4 CODECOPY DUP2 ADD SUB SLT PUSH2 0x1DB JUMPI DUP1 MLOAD PUSH1 0x1 PUSH1 0x1 PUSH1 0xA0 SHL SUB DUP2 AND SWAP2 DUP3 DUP3 SUB PUSH2 0x1DB JUMPI PUSH2 0x4A PUSH1 0x20 DUP3 ADD PUSH2 0x22D JUMP JUMPDEST SWAP3 PUSH2 0x57 PUSH1 0x40 DUP4 ADD PUSH2 0x22D JUMP JUMPDEST SWAP2 PUSH1 0x60 DUP2 ADD MLOAD SWAP2 DUP3 ISZERO ISZERO DUP1 SWAP4 SUB PUSH2 0x1DB JUMPI PUSH1 0x80 DUP3 ADD MLOAD SWAP2 PUSH3 0xFFFFFF DUP4 AND DUP4 SUB PUSH2 0x1DB JUMPI PUSH1 0x4 SWAP2 PUSH1 0xA0 PUSH1 0x20 SWAP3 ADD MLOAD SWAP7 PUSH1 0x80 MSTORE PUSH1 0x40 MLOAD SWAP3 DUP4 DUP1 SWAP3 PUSH4 0x26B1D5F PUSH1 0xE0 SHL DUP3 MSTORE GAS STATICCALL SWAP1 DUP2 ISZERO PUSH2 0x1E8 JUMPI PUSH1 0x0 SWAP2 PUSH2 0x1A9 JUMPI JUMPDEST POP PUSH1 0x1 DUP1 PUSH1 0xA0 SHL SUB AND PUSH1 0xA0 MSTORE PUSH1 0x1 PUSH1 0x0 SSTORE PUSH1 0x1 SLOAD SWAP3 PUSH1 0x40 MLOAD SWAP6 CALLER PUSH1 0x1 DUP1 PUSH1 0xA0 SHL SUB DUP7 AND PUSH32 0x8BE0079C531659141344CD1FD0A4F28419497F9722A3DAAFE3B4186F6B6457E0 PUSH1 0x0 DUP1 LOG3 PUSH1 0x1 PUSH1 0x1 PUSH1 0xA0 SHL SUB SWAP1 DUP2 AND PUSH1 0xC0 MSTORE AND PUSH1 0xE0 MSTORE PUSH1 0xA0 SWAP2 SWAP1 SWAP2 SHL PUSH1 0xFF PUSH1 0xA0 SHL AND PUSH1 0x1 PUSH1 0x1 PUSH1 0xC0 SHL SUB NOT SWAP1 SWAP3 AND CALLER PUSH4 0xFFFFFFFF PUSH1 0xA0 SHL NOT AND OR SWAP2 SWAP1 SWAP2 OR PUSH1 0xA8 SWAP2 SWAP1 SWAP2 SHL PUSH3 0xFFFFFF PUSH1 0xA8 SHL AND OR PUSH1 0x1 SSTORE PUSH1 0x2 SSTORE PUSH2 0x13B9 SWAP1 DUP2 PUSH2 0x242 DUP3 CODECOPY PUSH1 0x80 MLOAD DUP2 PUSH2 0x10E6 ADD MSTORE PUSH1 0xA0 MLOAD DUP2 DUP2 DUP2 PUSH2 0x46D ADD MSTORE DUP2 DUP2 PUSH2 0x6F8 ADD MSTORE DUP2 DUP2 PUSH2 0x83B ADD MSTORE PUSH2 0xD5F ADD MSTORE PUSH1 0xC0 MLOAD DUP2 DUP2 DUP2 PUSH2 0x283 ADD MSTORE DUP2 DUP2 PUSH2 0x373 ADD MSTORE DUP2 DUP2 PUSH2 0xF92 ADD MSTORE PUSH2 0x1077 ADD MSTORE PUSH1 0xE0 MLOAD DUP2 DUP2 DUP2 PUSH2 0x642 ADD MSTORE DUP2 DUP2 PUSH2 0xB99 ADD MSTORE PUSH2 0xCF7 ADD MSTORE RETURN JUMPDEST SWAP1 POP PUSH1 0x20 DUP2 RETURNDATASIZE PUSH1 0x20 GT PUSH2 0x1E0 JUMPI JUMPDEST DUP2 PUSH2 0x1C4 PUSH1 0x20 SWAP4 DUP4 PUSH2 0x1F4 JUMP JUMPDEST DUP2 ADD SUB SLT PUSH2 0x1DB JUMPI PUSH2 0x1D5 SWAP1 PUSH2 0x22D JUMP JUMPDEST CODESIZE PUSH2 0xAA JUMP JUMPDEST PUSH1 0x0 DUP1 REVERT JUMPDEST RETURNDATASIZE SWAP2 POP PUSH2 0x1B7 JUMP JUMPDEST PUSH1 0x40 MLOAD RETURNDATASIZE PUSH1 0x0 DUP3 RETURNDATACOPY RETURNDATASIZE SWAP1 REVERT JUMPDEST PUSH1 0x1F SWAP1 SWAP2 ADD PUSH1 0x1F NOT AND DUP2 ADD SWAP1 PUSH1 0x1 PUSH1 0x1 PUSH1 0x40 SHL SUB DUP3 GT SWAP1 DUP3 LT OR PUSH2 0x217 JUMPI PUSH1 0x40 MSTORE JUMP JUMPDEST PUSH4 0x4E487B71 PUSH1 0xE0 SHL PUSH1 0x0 MSTORE PUSH1 0x41 PUSH1 0x4 MSTORE PUSH1 0x24 PUSH1 0x0 REVERT JUMPDEST MLOAD SWAP1 PUSH1 0x1 PUSH1 0x1 PUSH1 0xA0 SHL SUB DUP3 AND DUP3 SUB PUSH2 0x1DB JUMPI JUMP INVALID PUSH1 0x80 DUP1 PUSH1 0x40 MSTORE PUSH1 0x4 CALLDATASIZE LT ISZERO PUSH2 0x13 JUMPI PUSH1 0x0 DUP1 REVERT JUMPDEST PUSH1 0x0 SWAP1 DUP2 CALLDATALOAD PUSH1 0xE0 SHR SWAP1 DUP2 PUSH4 0x542975C EQ PUSH2 0x10D2 JUMPI POP DUP1 PUSH4 0xF5DC0FA EQ PUSH2 0x10AC JUMPI DUP1 PUSH4 0x1B11D0FF EQ PUSH2 0xAB6 JUMPI DUP1 PUSH4 0x2341D1DB EQ PUSH2 0xA48 JUMPI DUP1 PUSH4 0x24E26241 EQ PUSH2 0x8E4 JUMPI DUP1 PUSH4 0x25F10562 EQ PUSH2 0x778 JUMPI DUP1 PUSH4 0x289323FD EQ PUSH2 0x671 JUMPI DUP1 PUSH4 0x41C64A2F EQ PUSH2 0x62C JUMPI DUP1 PUSH4 0x6F60A6DD EQ PUSH2 0x606 JUMPI DUP1 PUSH4 0x6FF1C9BC EQ PUSH2 0x4F9 JUMPI DUP1 PUSH4 0x715018A6 EQ PUSH2 0x49C JUMPI DUP1 PUSH4 0x7535D246 EQ PUSH2 0x457 JUMPI DUP1 PUSH4 0x8898A1B6 EQ PUSH2 0x2DB JUMPI DUP1 PUSH4 0x8DA5CB5B EQ PUSH2 0x2B2 JUMPI DUP1 PUSH4 0xA82ED9EC EQ PUSH2 0x26D JUMPI DUP1 PUSH4 0xC4AA7395 EQ PUSH2 0x24F JUMPI DUP1 PUSH4 0xF2FDE38B EQ PUSH2 0x186 JUMPI PUSH4 0xF8B2CB4F EQ PUSH2 0xE7 JUMPI PUSH1 0x0 DUP1 REVERT JUMPDEST CALLVALUE PUSH2 0x183 JUMPI PUSH1 0x20 CALLDATASIZE PUSH1 0x3 NOT ADD SLT PUSH2 0x183 JUMPI PUSH1 0x24 SWAP1 PUSH1 0x20 PUSH1 0x1 PUSH1 0x1 PUSH1 0xA0 SHL SUB PUSH2 0x10D PUSH2 0x1115 JUMP JUMPDEST AND PUSH1 0x40 MLOAD SWAP4 DUP5 DUP1 SWAP3 PUSH4 0x70A08231 PUSH1 0xE0 SHL DUP3 MSTORE ADDRESS PUSH1 0x4 DUP4 ADD MSTORE GAS STATICCALL SWAP1 DUP2 ISZERO PUSH2 0x177 JUMPI SWAP1 PUSH2 0x13F JUMPI JUMPDEST PUSH1 0x20 SWAP1 PUSH1 0x40 MLOAD SWAP1 DUP2 MSTORE RETURN JUMPDEST POP PUSH1 0x20 DUP2 RETURNDATASIZE PUSH1 0x20 GT PUSH2 0x16F JUMPI JUMPDEST DUP2 PUSH2 0x159 PUSH1 0x20 SWAP4 DUP4 PUSH2 0x1155 JUMP JUMPDEST DUP2 ADD SUB SLT PUSH2 0x16A JUMPI PUSH1 0x20 SWAP1 MLOAD PUSH2 0x134 JUMP JUMPDEST PUSH1 0x0 DUP1 REVERT JUMPDEST RETURNDATASIZE SWAP2 POP PUSH2 0x14C JUMP JUMPDEST PUSH1 0x40 MLOAD SWAP1 RETURNDATASIZE SWAP1 DUP3 RETURNDATACOPY RETURNDATASIZE SWAP1 REVERT JUMPDEST DUP1 REVERT JUMPDEST POP CALLVALUE PUSH2 0x183 JUMPI PUSH1 0x20 CALLDATASIZE PUSH1 0x3 NOT ADD SLT PUSH2 0x183 JUMPI PUSH2 0x1A0 PUSH2 0x1115 JUMP JUMPDEST PUSH2 0x1A8 PUSH2 0x1306 JUMP JUMPDEST PUSH1 0x1 PUSH1 0x1 PUSH1 0xA0 SHL SUB AND DUP1 ISZERO PUSH2 0x1FB JUMPI PUSH1 0x1 DUP1 SLOAD PUSH1 0x1 PUSH1 0x1 PUSH1 0xA0 SHL SUB NOT DUP2 AND DUP4 OR SWAP1 SWAP2 SSTORE PUSH1 0x1 PUSH1 0x1 PUSH1 0xA0 SHL SUB AND PUSH32 0x8BE0079C531659141344CD1FD0A4F28419497F9722A3DAAFE3B4186F6B6457E0 DUP4 DUP1 LOG3 DUP1 RETURN JUMPDEST PUSH1 0x40 MLOAD PUSH3 0x461BCD PUSH1 0xE5 SHL DUP2 MSTORE PUSH1 0x20 PUSH1 0x4 DUP3 ADD MSTORE PUSH1 0x26 PUSH1 0x24 DUP3 ADD MSTORE PUSH32 0x4F776E61626C653A206E6577206F776E657220697320746865207A65726F2061 PUSH1 0x44 DUP3 ADD MSTORE PUSH6 0x646472657373 PUSH1 0xD0 SHL PUSH1 0x64 DUP3 ADD MSTORE PUSH1 0x84 SWAP1 REVERT JUMPDEST POP CALLVALUE PUSH2 0x183 JUMPI DUP1 PUSH1 0x3 NOT CALLDATASIZE ADD SLT PUSH2 0x183 JUMPI PUSH1 0x20 PUSH1 0x2 SLOAD PUSH1 0x40 MLOAD SWAP1 DUP2 MSTORE RETURN JUMPDEST POP CALLVALUE PUSH2 0x183 JUMPI DUP1 PUSH1 0x3 NOT CALLDATASIZE ADD SLT PUSH2 0x183 JUMPI PUSH1 0x40 MLOAD PUSH32 0x0 PUSH1 0x1 PUSH1 0x1 PUSH1 0xA0 SHL SUB AND DUP2 MSTORE PUSH1 0x20 SWAP1 RETURN JUMPDEST POP CALLVALUE PUSH2 0x183 JUMPI DUP1 PUSH1 0x3 NOT CALLDATASIZE ADD SLT PUSH2 0x183 JUMPI PUSH1 0x1 SLOAD PUSH1 0x40 MLOAD PUSH1 0x1 PUSH1 0x1 PUSH1 0xA0 SHL SUB SWAP1 SWAP2 AND DUP2 MSTORE PUSH1 0x20 SWAP1 RETURN JUMPDEST POP CALLVALUE PUSH2 0x183 JUMPI PUSH1 0x40 CALLDATASIZE PUSH1 0x3 NOT ADD SLT PUSH2 0x183 JUMPI PUSH1 0x24 CALLDATALOAD PUSH8 0xFFFFFFFFFFFFFFFF DUP2 GT PUSH2 0x453 JUMPI CALLDATASIZE PUSH1 0x23 DUP3 ADD SLT ISZERO PUSH2 0x453 JUMPI DUP1 PUSH1 0x4 ADD CALLDATALOAD SWAP1 PUSH8 0xFFFFFFFFFFFFFFFF DUP3 GT PUSH2 0x44F JUMPI CALLDATASIZE PUSH1 0x24 DUP4 PUSH1 0x5 SHL DUP4 ADD ADD GT PUSH2 0x44F JUMPI SWAP1 DUP3 PUSH1 0x40 MLOAD DUP1 SWAP4 PUSH4 0xD06CA61F PUSH1 0xE0 SHL DUP3 MSTORE DUP4 PUSH1 0x44 DUP4 ADD PUSH1 0x4 CALLDATALOAD PUSH1 0x4 DUP6 ADD MSTORE PUSH1 0x40 PUSH1 0x24 DUP6 ADD MSTORE MSTORE PUSH1 0x24 PUSH1 0x64 DUP4 ADD SWAP2 ADD SWAP4 DUP4 JUMPDEST DUP2 DUP2 LT PUSH2 0x41E JUMPI POP SWAP3 SWAP4 POP SWAP1 SWAP2 POP DUP2 SWAP1 SUB DUP2 PUSH32 0x0 PUSH1 0x1 PUSH1 0x1 PUSH1 0xA0 SHL SUB AND GAS STATICCALL SWAP1 DUP2 ISZERO PUSH2 0x413 JUMPI DUP3 SWAP2 PUSH2 0x3F1 JUMPI JUMPDEST POP SWAP1 PUSH1 0x40 MLOAD SWAP2 DUP3 SWAP2 PUSH1 0x20 DUP4 ADD PUSH1 0x20 DUP5 MSTORE DUP3 MLOAD DUP1 SWAP2 MSTORE PUSH1 0x20 PUSH1 0x40 DUP6 ADD SWAP4 ADD SWAP2 JUMPDEST DUP2 DUP2 LT PUSH2 0x3D8 JUMPI POP POP POP SUB SWAP1 RETURN JUMPDEST DUP3 MLOAD DUP5 MSTORE DUP6 SWAP5 POP PUSH1 0x20 SWAP4 DUP5 ADD SWAP4 SWAP1 SWAP3 ADD SWAP2 PUSH1 0x1 ADD PUSH2 0x3CA JUMP JUMPDEST PUSH2 0x40D SWAP2 POP RETURNDATASIZE DUP1 DUP5 DUP4 RETURNDATACOPY PUSH2 0x405 DUP2 DUP4 PUSH2 0x1155 JUMP JUMPDEST DUP2 ADD SWAP1 PUSH2 0x128C JUMP JUMPDEST CODESIZE PUSH2 0x3AB JUMP JUMPDEST PUSH1 0x40 MLOAD RETURNDATASIZE DUP5 DUP3 RETURNDATACOPY RETURNDATASIZE SWAP1 REVERT JUMPDEST SWAP1 SWAP4 POP SWAP2 POP PUSH1 0x1 SWAP1 PUSH1 0x20 SWAP1 DUP2 SWAP1 PUSH1 0x1 PUSH1 0x1 PUSH1 0xA0 SHL SUB PUSH2 0x43C DUP9 PUSH2 0x1141 JUMP JUMPDEST AND DUP2 MSTORE ADD SWAP5 ADD SWAP2 ADD SWAP3 DUP6 SWAP3 DUP6 SWAP3 SWAP5 PUSH2 0x35F JUMP JUMPDEST DUP3 DUP1 REVERT JUMPDEST POP DUP1 REVERT JUMPDEST POP CALLVALUE PUSH2 0x183 JUMPI DUP1 PUSH1 0x3 NOT CALLDATASIZE ADD SLT PUSH2 0x183 JUMPI PUSH1 0x40 MLOAD PUSH32 0x0 PUSH1 0x1 PUSH1 0x1 PUSH1 0xA0 SHL SUB AND DUP2 MSTORE PUSH1 0x20 SWAP1 RETURN JUMPDEST POP CALLVALUE PUSH2 0x183 JUMPI DUP1 PUSH1 0x3 NOT CALLDATASIZE ADD SLT PUSH2 0x183 JUMPI PUSH2 0x4B5 PUSH2 0x1306 JUMP JUMPDEST PUSH1 0x1 DUP1 SLOAD PUSH1 0x1 PUSH1 0x1 PUSH1 0xA0 SHL SUB NOT DUP2 AND SWAP1 SWAP2 SSTORE DUP2 SWAP1 PUSH1 0x1 PUSH1 0x1 PUSH1 0xA0 SHL SUB AND PUSH32 0x8BE0079C531659141344CD1FD0A4F28419497F9722A3DAAFE3B4186F6B6457E0 DUP3 DUP1 LOG3 DUP1 RETURN JUMPDEST POP CALLVALUE PUSH2 0x183 JUMPI PUSH1 0x20 CALLDATASIZE PUSH1 0x3 NOT ADD SLT PUSH2 0x183 JUMPI PUSH2 0x513 PUSH2 0x1115 JUMP JUMPDEST PUSH2 0x51B PUSH2 0x1306 JUMP JUMPDEST PUSH1 0x40 MLOAD PUSH4 0x70A08231 PUSH1 0xE0 SHL DUP2 MSTORE ADDRESS PUSH1 0x4 DUP3 ADD MSTORE PUSH1 0x1 PUSH1 0x1 PUSH1 0xA0 SHL SUB SWAP2 SWAP1 SWAP2 AND SWAP1 PUSH1 0x20 DUP2 PUSH1 0x24 DUP2 DUP6 GAS STATICCALL SWAP1 DUP2 ISZERO PUSH2 0x5FB JUMPI DUP4 SWAP2 PUSH2 0x5C7 JUMPI JUMPDEST POP PUSH1 0x1 SLOAD PUSH1 0x40 MLOAD PUSH4 0xA9059CBB PUSH1 0xE0 SHL DUP2 MSTORE PUSH1 0x1 PUSH1 0x1 PUSH1 0xA0 SHL SUB SWAP1 SWAP2 AND PUSH1 0x4 DUP3 ADD MSTORE PUSH1 0x24 DUP2 ADD SWAP2 SWAP1 SWAP2 MSTORE SWAP1 PUSH1 0x20 SWAP1 DUP3 SWAP1 DUP2 DUP6 DUP2 PUSH1 0x44 DUP2 ADD JUMPDEST SUB SWAP3 GAS CALL DUP1 ISZERO PUSH2 0x413 JUMPI PUSH2 0x59B JUMPI POP DUP1 RETURN JUMPDEST PUSH2 0x5BC SWAP1 PUSH1 0x20 RETURNDATASIZE PUSH1 0x20 GT PUSH2 0x5C0 JUMPI JUMPDEST PUSH2 0x5B4 DUP2 DUP4 PUSH2 0x1155 JUMP JUMPDEST DUP2 ADD SWAP1 PUSH2 0x11C8 JUMP JUMPDEST POP DUP1 RETURN JUMPDEST POP RETURNDATASIZE PUSH2 0x5AA JUMP JUMPDEST SWAP1 POP PUSH1 0x20 DUP2 RETURNDATASIZE PUSH1 0x20 GT PUSH2 0x5F3 JUMPI JUMPDEST DUP2 PUSH2 0x5E2 PUSH1 0x20 SWAP4 DUP4 PUSH2 0x1155 JUMP JUMPDEST DUP2 ADD SUB SLT PUSH2 0x16A JUMPI MLOAD PUSH2 0x589 PUSH2 0x552 JUMP JUMPDEST RETURNDATASIZE SWAP2 POP PUSH2 0x5D5 JUMP JUMPDEST PUSH1 0x40 MLOAD RETURNDATASIZE DUP6 DUP3 RETURNDATACOPY RETURNDATASIZE SWAP1 REVERT JUMPDEST POP CALLVALUE PUSH2 0x183 JUMPI DUP1 PUSH1 0x3 NOT CALLDATASIZE ADD SLT PUSH2 0x183 JUMPI PUSH1 0x20 PUSH3 0xFFFFFF PUSH1 0x1 SLOAD PUSH1 0xA8 SHR AND PUSH1 0x40 MLOAD SWAP1 DUP2 MSTORE RETURN JUMPDEST POP CALLVALUE PUSH2 0x183 JUMPI DUP1 PUSH1 0x3 NOT CALLDATASIZE ADD SLT PUSH2 0x183 JUMPI PUSH1 0x40 MLOAD PUSH32 0x0 PUSH1 0x1 PUSH1 0x1 PUSH1 0xA0 SHL SUB AND DUP2 MSTORE PUSH1 0x20 SWAP1 RETURN JUMPDEST POP CALLVALUE PUSH2 0x183 JUMPI PUSH1 0xA0 CALLDATASIZE PUSH1 0x3 NOT ADD SLT PUSH2 0x183 JUMPI DUP1 PUSH2 0x68C PUSH2 0x1115 JUMP JUMPDEST PUSH1 0x44 CALLDATALOAD PUSH1 0x1 PUSH1 0x1 PUSH1 0xA0 SHL SUB DUP2 AND SWAP2 SWAP1 DUP3 SWAP1 SUB PUSH2 0x774 JUMPI PUSH3 0xFFFFFF PUSH2 0x6AE PUSH2 0x112B JUMP JUMPDEST PUSH1 0x1 SLOAD SWAP1 PUSH1 0x40 MLOAD SWAP5 PUSH1 0x20 DUP7 ADD MSTORE PUSH1 0x1 DUP1 PUSH1 0xA0 SHL SUB AND PUSH1 0x40 DUP6 ADD MSTORE PUSH1 0x84 CALLDATALOAD PUSH1 0x60 DUP6 ADD MSTORE PUSH1 0xFF DUP2 PUSH1 0xA0 SHR AND ISZERO ISZERO PUSH1 0x80 DUP6 ADD MSTORE PUSH1 0xA8 SHR AND PUSH1 0xA0 DUP4 ADD MSTORE PUSH1 0xA0 DUP3 MSTORE PUSH2 0x6F6 PUSH1 0xC0 DUP4 PUSH2 0x1155 JUMP JUMPDEST PUSH32 0x0 PUSH1 0x1 PUSH1 0x1 PUSH1 0xA0 SHL SUB AND SWAP2 DUP3 EXTCODESIZE ISZERO PUSH2 0x772 JUMPI PUSH2 0x750 SWAP3 DUP5 SWAP3 DUP4 PUSH1 0x40 MLOAD DUP1 SWAP7 DUP2 SWAP6 DUP3 SWAP5 PUSH4 0x10AC2DDF PUSH1 0xE2 SHL DUP5 MSTORE PUSH1 0x24 CALLDATALOAD SWAP1 ADDRESS PUSH1 0x4 DUP7 ADD PUSH2 0x121D JUMP JUMPDEST SUB SWAP3 GAS CALL DUP1 ISZERO PUSH2 0x413 JUMPI PUSH2 0x761 JUMPI POP RETURN JUMPDEST DUP2 PUSH2 0x76B SWAP2 PUSH2 0x1155 JUMP JUMPDEST PUSH2 0x183 JUMPI DUP1 RETURN JUMPDEST POP JUMPDEST POP POP REVERT JUMPDEST POP CALLVALUE PUSH2 0x183 JUMPI PUSH1 0x80 CALLDATASIZE PUSH1 0x3 NOT ADD SLT PUSH2 0x183 JUMPI PUSH2 0x792 PUSH2 0x1115 JUMP JUMPDEST PUSH1 0x44 CALLDATALOAD PUSH8 0xFFFFFFFFFFFFFFFF DUP2 GT PUSH2 0x44F JUMPI CALLDATASIZE PUSH1 0x23 DUP3 ADD SLT ISZERO PUSH2 0x44F JUMPI DUP1 PUSH1 0x4 ADD CALLDATALOAD SWAP1 PUSH2 0x7BE DUP3 PUSH2 0x118D JUMP JUMPDEST SWAP2 PUSH2 0x7CC PUSH1 0x40 MLOAD SWAP4 DUP5 PUSH2 0x1155 JUMP JUMPDEST DUP1 DUP4 MSTORE PUSH1 0x24 PUSH1 0x20 DUP5 ADD SWAP2 PUSH1 0x5 SHL DUP4 ADD ADD SWAP2 CALLDATASIZE DUP4 GT PUSH2 0x8E0 JUMPI SWAP1 PUSH1 0x24 DUP7 SWAP5 SWAP4 SWAP3 ADD SWAP1 JUMPDEST DUP3 DUP3 LT PUSH2 0x8BF JUMPI POP POP POP SWAP2 PUSH2 0x839 PUSH2 0x817 SWAP4 PUSH1 0x40 MLOAD SWAP5 DUP6 SWAP2 PUSH1 0x80 PUSH1 0x20 DUP5 ADD MSTORE PUSH1 0xA0 DUP4 ADD SWAP1 PUSH2 0x11E0 JUMP JUMPDEST PUSH1 0x64 CALLDATALOAD PUSH1 0x40 DUP4 ADD MSTORE DUP5 PUSH1 0x60 DUP4 ADD MSTORE DUP5 PUSH1 0x80 DUP4 ADD MSTORE SUB PUSH1 0x1F NOT DUP2 ADD DUP6 MSTORE DUP5 PUSH2 0x1155 JUMP JUMPDEST PUSH32 0x0 PUSH1 0x1 PUSH1 0x1 PUSH1 0xA0 SHL SUB AND SWAP3 DUP4 EXTCODESIZE ISZERO PUSH2 0x44F JUMPI PUSH2 0x893 SWAP4 DUP4 SWAP3 DUP4 PUSH1 0x40 MLOAD DUP1 SWAP8 DUP2 SWAP6 DUP3 SWAP5 PUSH4 0x10AC2DDF PUSH1 0xE2 SHL DUP5 MSTORE PUSH1 0x24 CALLDATALOAD SWAP1 ADDRESS PUSH1 0x4 DUP7 ADD PUSH2 0x121D JUMP JUMPDEST SUB SWAP3 GAS CALL DUP1 ISZERO PUSH2 0x8B2 JUMPI PUSH2 0x8A4 JUMPI DUP1 RETURN JUMPDEST PUSH2 0x8AD SWAP2 PUSH2 0x1155 JUMP JUMPDEST CODESIZE DUP2 DUP1 RETURN JUMPDEST POP PUSH1 0x40 MLOAD SWAP1 RETURNDATASIZE SWAP1 DUP3 RETURNDATACOPY RETURNDATASIZE SWAP1 REVERT JUMPDEST DUP2 SWAP3 SWAP4 SWAP5 POP PUSH1 0x20 SWAP2 SWAP1 PUSH2 0x8D2 DUP4 SWAP3 PUSH2 0x1141 JUMP JUMPDEST DUP2 MSTORE ADD SWAP2 ADD DUP6 SWAP4 SWAP3 SWAP2 PUSH2 0x7EE JUMP JUMPDEST DUP6 DUP1 REVERT JUMPDEST POP CALLVALUE PUSH2 0x183 JUMPI PUSH1 0x20 CALLDATASIZE PUSH1 0x3 NOT ADD SLT PUSH2 0x183 JUMPI PUSH2 0x8FE PUSH2 0x1115 JUMP JUMPDEST PUSH2 0x906 PUSH2 0x1306 JUMP JUMPDEST PUSH1 0x40 MLOAD PUSH4 0x70A08231 PUSH1 0xE0 SHL DUP2 MSTORE ADDRESS PUSH1 0x4 DUP3 ADD MSTORE PUSH1 0x1 PUSH1 0x1 PUSH1 0xA0 SHL SUB SWAP2 SWAP1 SWAP2 AND SWAP1 PUSH1 0x20 DUP2 PUSH1 0x24 DUP2 DUP6 GAS STATICCALL SWAP1 DUP2 ISZERO PUSH2 0x5FB JUMPI DUP4 SWAP2 PUSH2 0xA16 JUMPI JUMPDEST POP DUP1 ISZERO PUSH2 0x9D8 JUMPI PUSH1 0x1 SLOAD PUSH1 0x40 MLOAD PUSH4 0xA9059CBB PUSH1 0xE0 SHL DUP2 MSTORE PUSH1 0x1 PUSH1 0x1 PUSH1 0xA0 SHL SUB SWAP1 SWAP2 AND PUSH1 0x4 DUP3 ADD MSTORE PUSH1 0x24 DUP2 ADD DUP3 SWAP1 MSTORE SWAP1 PUSH1 0x20 DUP3 PUSH1 0x44 DUP2 DUP8 DUP8 GAS CALL SWAP1 DUP2 ISZERO PUSH2 0x9CD JUMPI PUSH32 0x16E128B6BDADD9E9068ABD0B18DB2FC8B27ED3DBCED50E4AA6CC0A6934251AB SWAP3 PUSH1 0x20 SWAP3 PUSH2 0x9B2 JUMPI JUMPDEST POP PUSH1 0x40 MLOAD SWAP1 DUP2 MSTORE LOG2 DUP1 RETURN JUMPDEST PUSH2 0x9C8 SWAP1 DUP4 RETURNDATASIZE DUP6 GT PUSH2 0x5C0 JUMPI PUSH2 0x5B4 DUP2 DUP4 PUSH2 0x1155 JUMP JUMPDEST PUSH2 0x9A7 JUMP JUMPDEST PUSH1 0x40 MLOAD RETURNDATASIZE DUP7 DUP3 RETURNDATACOPY RETURNDATASIZE SWAP1 REVERT JUMPDEST PUSH1 0x40 MLOAD PUSH3 0x461BCD PUSH1 0xE5 SHL DUP2 MSTORE PUSH1 0x20 PUSH1 0x4 DUP3 ADD MSTORE PUSH1 0x16 PUSH1 0x24 DUP3 ADD MSTORE PUSH22 0x4E6F2062616C616E636520746F207769746864726177 PUSH1 0x50 SHL PUSH1 0x44 DUP3 ADD MSTORE PUSH1 0x64 SWAP1 REVERT JUMPDEST SWAP1 POP PUSH1 0x20 DUP2 RETURNDATASIZE PUSH1 0x20 GT PUSH2 0xA40 JUMPI JUMPDEST DUP2 PUSH2 0xA31 PUSH1 0x20 SWAP4 DUP4 PUSH2 0x1155 JUMP JUMPDEST DUP2 ADD SUB SLT PUSH2 0x44F JUMPI MLOAD CODESIZE PUSH2 0x93D JUMP JUMPDEST RETURNDATASIZE SWAP2 POP PUSH2 0xA24 JUMP JUMPDEST POP CALLVALUE PUSH2 0x183 JUMPI PUSH1 0x60 CALLDATASIZE PUSH1 0x3 NOT ADD SLT PUSH2 0x183 JUMPI PUSH1 0x4 CALLDATALOAD DUP1 ISZERO ISZERO DUP1 SWAP2 SUB PUSH2 0x453 JUMPI PUSH1 0x24 CALLDATALOAD PUSH3 0xFFFFFF DUP2 AND DUP2 SUB PUSH2 0x44F JUMPI PUSH2 0xA7E PUSH2 0x1306 JUMP JUMPDEST PUSH1 0x1 DUP1 SLOAD PUSH4 0xFFFFFFFF PUSH1 0xA0 SHL NOT AND PUSH1 0xA0 SWAP4 SWAP1 SWAP4 SHL PUSH1 0xFF PUSH1 0xA0 SHL AND SWAP3 SWAP1 SWAP3 OR PUSH1 0xA8 SWAP2 SWAP1 SWAP2 SHL PUSH3 0xFFFFFF PUSH1 0xA8 SHL AND OR SWAP1 SSTORE PUSH1 0x44 CALLDATALOAD PUSH1 0x2 SSTORE DUP1 RETURN JUMPDEST POP CALLVALUE PUSH2 0x183 JUMPI PUSH1 0xA0 CALLDATASIZE PUSH1 0x3 NOT ADD SLT PUSH2 0x183 JUMPI PUSH2 0xAD0 PUSH2 0x1115 JUMP JUMPDEST PUSH1 0x24 CALLDATALOAD SWAP1 PUSH1 0x44 CALLDATALOAD SWAP1 PUSH2 0xAE0 PUSH2 0x112B JUMP JUMPDEST POP PUSH1 0x84 CALLDATALOAD SWAP3 PUSH8 0xFFFFFFFFFFFFFFFF DUP5 GT PUSH2 0x10A8 JUMPI CALLDATASIZE PUSH1 0x23 DUP6 ADD SLT ISZERO PUSH2 0x10A8 JUMPI DUP4 PUSH1 0x4 ADD CALLDATALOAD PUSH8 0xFFFFFFFFFFFFFFFF DUP2 GT PUSH2 0x8E0 JUMPI DUP5 ADD CALLDATASIZE PUSH1 0x24 DUP3 ADD GT PUSH2 0x8E0 JUMPI PUSH1 0xA0 SWAP1 DUP6 SWAP1 SUB SLT PUSH2 0x10A8 JUMPI PUSH2 0xB36 PUSH1 0x24 DUP6 ADD PUSH2 0x1141 JUMP JUMPDEST SWAP4 PUSH2 0xB43 PUSH1 0x44 DUP3 ADD PUSH2 0x1141 JUMP JUMPDEST SWAP4 PUSH1 0x84 DUP3 ADD CALLDATALOAD SWAP1 DUP2 ISZERO ISZERO DUP3 SUB PUSH2 0x10A4 JUMPI PUSH1 0xA4 DUP4 ADD CALLDATALOAD SWAP7 PUSH3 0xFFFFFF DUP9 AND DUP1 SWAP9 SUB PUSH2 0xECB JUMPI PUSH1 0x1 PUSH1 0x1 PUSH1 0xA0 SHL SUB SWAP7 DUP8 AND SWAP8 SWAP7 AND SWAP6 DUP5 DUP3 ADD SWAP6 DUP7 DUP7 GT PUSH2 0xEEB JUMPI PUSH1 0x1 PUSH1 0x1 PUSH1 0xA0 SHL SUB AND SWAP3 DUP1 ISZERO PUSH2 0x106E JUMPI PUSH2 0xBF7 PUSH1 0x20 DUP8 DUP13 PUSH32 0x0 PUSH1 0x1 PUSH1 0x1 PUSH1 0xA0 SHL SUB AND JUMPDEST PUSH1 0x40 MLOAD PUSH4 0x95EA7B3 PUSH1 0xE0 SHL DUP2 MSTORE PUSH1 0x1 PUSH1 0x1 PUSH1 0xA0 SHL SUB SWAP1 SWAP2 AND PUSH1 0x4 DUP3 ADD MSTORE PUSH1 0x24 DUP2 ADD SWAP3 SWAP1 SWAP3 MSTORE SWAP1 SWAP3 DUP4 SWAP2 SWAP1 DUP3 SWAP1 DUP2 SWAP1 PUSH1 0x44 DUP3 ADD SWAP1 JUMP JUMPDEST SUB SWAP2 DUP10 GAS CALL DUP1 ISZERO PUSH2 0x1063 JUMPI PUSH2 0x1046 JUMPI JUMPDEST POP ISZERO PUSH2 0xEFF JUMPI PUSH2 0x12C TIMESTAMP ADD SWAP1 DUP2 TIMESTAMP GT PUSH2 0xEEB JUMPI PUSH2 0xC23 DUP7 PUSH2 0x135E JUMP JUMPDEST SWAP1 PUSH1 0x40 MLOAD SWAP3 PUSH2 0x100 DUP5 ADD DUP5 DUP2 LT PUSH8 0xFFFFFFFFFFFFFFFF DUP3 GT OR PUSH2 0xED7 JUMPI SWAP1 DUP13 SWAP4 SWAP3 SWAP2 PUSH1 0x40 MSTORE DUP11 DUP6 MSTORE PUSH1 0x20 DUP6 ADD SWAP2 DUP13 DUP4 MSTORE PUSH1 0x40 DUP7 ADD SWAP1 DUP2 MSTORE PUSH3 0xFFFFFF PUSH1 0x60 DUP8 ADD SWAP2 ADDRESS DUP4 MSTORE PUSH1 0x80 DUP9 ADD SWAP4 DUP5 MSTORE PUSH1 0xA0 DUP9 ADD SWAP5 DUP13 DUP7 MSTORE PUSH1 0xC0 DUP10 ADD SWAP7 DUP8 MSTORE PUSH1 0xE0 DUP10 ADD SWAP8 DUP9 MSTORE PUSH1 0x40 MLOAD SWAP9 PUSH4 0x414BF389 PUSH1 0xE0 SHL DUP11 MSTORE PUSH1 0x1 DUP1 PUSH1 0xA0 SHL SUB SWAP1 MLOAD AND PUSH1 0x4 DUP11 ADD MSTORE PUSH1 0x1 DUP1 PUSH1 0xA0 SHL SUB SWAP1 MLOAD AND PUSH1 0x24 DUP10 ADD MSTORE MLOAD AND PUSH1 0x44 DUP8 ADD MSTORE PUSH1 0x1 DUP1 PUSH1 0xA0 SHL SUB SWAP1 MLOAD AND PUSH1 0x64 DUP7 ADD MSTORE MLOAD PUSH1 0x84 DUP6 ADD MSTORE MLOAD PUSH1 0xA4 DUP5 ADD MSTORE MLOAD PUSH1 0xC4 DUP4 ADD MSTORE PUSH1 0x1 DUP1 PUSH1 0xA0 SHL SUB SWAP1 MLOAD AND PUSH1 0xE4 DUP3 ADD MSTORE PUSH1 0x20 DUP2 PUSH2 0x104 DUP2 DUP13 PUSH1 0x1 DUP1 PUSH1 0xA0 SHL SUB PUSH32 0x0 AND GAS CALL SWAP1 DUP2 ISZERO PUSH2 0xE52 JUMPI DUP10 SWAP2 PUSH2 0xEA1 JUMPI JUMPDEST POP SWAP5 JUMPDEST DUP1 DUP7 GT ISZERO PUSH2 0xE98 JUMPI PUSH1 0x64 PUSH2 0xD3E DUP3 DUP9 PUSH2 0x11A5 JUMP JUMPDEST SWAP5 JUMPDEST ADD CALLDATALOAD DUP5 LT PUSH2 0xE5D JUMPI PUSH1 0x40 MLOAD PUSH4 0x95EA7B3 PUSH1 0xE0 SHL DUP2 MSTORE PUSH1 0x1 PUSH1 0x1 PUSH1 0xA0 SHL SUB PUSH32 0x0 AND PUSH1 0x4 DUP3 ADD MSTORE PUSH1 0x24 DUP2 ADD SWAP2 SWAP1 SWAP2 MSTORE PUSH1 0x20 DUP2 PUSH1 0x44 DUP2 DUP13 DUP8 GAS CALL DUP1 ISZERO PUSH2 0xE52 JUMPI SWAP4 DUP1 SWAP4 SWAP3 PUSH32 0xE03A36D920AD8DE5A978A8F1917280E202AE9193E6DC19E08EF1F6C2A051EBA4 SWAP3 PUSH2 0xE27 SWAP7 PUSH32 0x479602BEF4BB9277C21BEADDA23C5E4DB7F0B2D4877D00070D6E0739E8C7C0E SWAP11 SWAP12 SWAP13 POP PUSH2 0xE35 JUMPI JUMPDEST POP PUSH1 0x40 DUP1 MLOAD DUP9 DUP2 MSTORE PUSH1 0x20 DUP2 ADD SWAP3 SWAP1 SWAP3 MSTORE DUP2 ADD SWAP2 SWAP1 SWAP2 MSTORE PUSH1 0x60 SWAP1 LOG2 PUSH1 0x40 MLOAD SWAP4 DUP5 SWAP4 DUP5 PUSH1 0x40 SWAP2 SWAP5 SWAP4 SWAP3 PUSH1 0x60 DUP3 ADD SWAP6 DUP3 MSTORE PUSH1 0x20 DUP3 ADD MSTORE ADD MSTORE JUMP JUMPDEST SUB SWAP1 LOG3 PUSH1 0x20 PUSH1 0x40 MLOAD PUSH1 0x1 DUP2 MSTORE RETURN JUMPDEST PUSH2 0xE4D SWAP1 PUSH1 0x20 RETURNDATASIZE PUSH1 0x20 GT PUSH2 0x5C0 JUMPI PUSH2 0x5B4 DUP2 DUP4 PUSH2 0x1155 JUMP JUMPDEST PUSH2 0xDF0 JUMP JUMPDEST PUSH1 0x40 MLOAD RETURNDATASIZE DUP12 DUP3 RETURNDATACOPY RETURNDATASIZE SWAP1 REVERT JUMPDEST PUSH1 0x40 MLOAD PUSH3 0x461BCD PUSH1 0xE5 SHL DUP2 MSTORE PUSH1 0x20 PUSH1 0x4 DUP3 ADD MSTORE PUSH1 0x13 PUSH1 0x24 DUP3 ADD MSTORE PUSH19 0x125B9CDD59999A58DA595B9D081C1C9BD99A5D PUSH1 0x6A SHL PUSH1 0x44 DUP3 ADD MSTORE PUSH1 0x64 SWAP1 REVERT JUMPDEST PUSH1 0x64 DUP10 SWAP5 PUSH2 0xD40 JUMP JUMPDEST SWAP1 POP PUSH1 0x20 DUP2 RETURNDATASIZE PUSH1 0x20 GT PUSH2 0xECF JUMPI JUMPDEST DUP2 PUSH2 0xEBC PUSH1 0x20 SWAP4 DUP4 PUSH2 0x1155 JUMP JUMPDEST DUP2 ADD SUB SLT PUSH2 0xECB JUMPI MLOAD CODESIZE PUSH2 0xD27 JUMP JUMPDEST DUP9 DUP1 REVERT JUMPDEST RETURNDATASIZE SWAP2 POP PUSH2 0xEAF JUMP JUMPDEST PUSH4 0x4E487B71 PUSH1 0xE0 SHL DUP14 MSTORE PUSH1 0x41 PUSH1 0x4 MSTORE PUSH1 0x24 DUP14 REVERT JUMPDEST PUSH4 0x4E487B71 PUSH1 0xE0 SHL DUP11 MSTORE PUSH1 0x11 PUSH1 0x4 MSTORE PUSH1 0x24 DUP11 REVERT JUMPDEST POP PUSH1 0x40 MLOAD PUSH2 0xF0E PUSH1 0x60 DUP3 PUSH2 0x1155 JUMP JUMPDEST PUSH1 0x2 DUP2 MSTORE PUSH1 0x20 DUP2 ADD PUSH1 0x40 CALLDATASIZE DUP3 CALLDATACOPY DUP2 MLOAD ISZERO PUSH2 0xFF0 JUMPI DUP8 SWAP1 MSTORE DUP1 MLOAD PUSH1 0x1 LT ISZERO PUSH2 0x1032 JUMPI DUP8 PUSH1 0x40 DUP3 ADD MSTORE PUSH2 0xF3E DUP6 PUSH2 0x135E JUMP JUMPDEST PUSH2 0x12C TIMESTAMP ADD DUP1 TIMESTAMP GT PUSH2 0x101E JUMPI SWAP2 DUP11 SWAP2 PUSH2 0xF7F SWAP4 PUSH1 0x40 MLOAD SWAP5 DUP6 SWAP4 DUP5 SWAP4 PUSH4 0x38ED1739 PUSH1 0xE0 SHL DUP6 MSTORE DUP12 PUSH1 0x4 DUP7 ADD MSTORE PUSH1 0x24 DUP6 ADD MSTORE PUSH1 0xA0 PUSH1 0x44 DUP6 ADD MSTORE PUSH1 0xA4 DUP5 ADD SWAP1 PUSH2 0x11E0 JUMP JUMPDEST ADDRESS PUSH1 0x64 DUP5 ADD MSTORE PUSH1 0x84 DUP4 ADD SWAP2 SWAP1 SWAP2 MSTORE SUB DUP2 DUP4 PUSH32 0x0 PUSH1 0x1 PUSH1 0x1 PUSH1 0xA0 SHL SUB AND GAS CALL SWAP1 DUP2 ISZERO PUSH2 0xE52 JUMPI DUP10 SWAP2 PUSH2 0x1004 JUMPI JUMPDEST POP DUP1 MLOAD PUSH1 0x0 NOT DUP2 ADD SWAP1 DUP2 GT PUSH2 0xEEB JUMPI DUP2 MLOAD DUP2 LT ISZERO PUSH2 0xFF0 JUMPI PUSH1 0x5 SHL ADD PUSH1 0x20 ADD MLOAD SWAP5 PUSH2 0xD2A JUMP JUMPDEST PUSH4 0x4E487B71 PUSH1 0xE0 SHL DUP11 MSTORE PUSH1 0x32 PUSH1 0x4 MSTORE PUSH1 0x24 DUP11 REVERT JUMPDEST PUSH2 0x1018 SWAP2 POP RETURNDATASIZE DUP1 DUP12 DUP4 RETURNDATACOPY PUSH2 0x405 DUP2 DUP4 PUSH2 0x1155 JUMP JUMPDEST CODESIZE PUSH2 0xFCA JUMP JUMPDEST PUSH4 0x4E487B71 PUSH1 0xE0 SHL DUP12 MSTORE PUSH1 0x11 PUSH1 0x4 MSTORE PUSH1 0x24 DUP12 REVERT JUMPDEST PUSH4 0x4E487B71 PUSH1 0xE0 SHL DUP10 MSTORE PUSH1 0x32 PUSH1 0x4 MSTORE PUSH1 0x24 DUP10 REVERT JUMPDEST PUSH2 0x105E SWAP1 PUSH1 0x20 RETURNDATASIZE PUSH1 0x20 GT PUSH2 0x5C0 JUMPI PUSH2 0x5B4 DUP2 DUP4 PUSH2 0x1155 JUMP JUMPDEST PUSH2 0xC07 JUMP JUMPDEST PUSH1 0x40 MLOAD RETURNDATASIZE DUP14 DUP3 RETURNDATACOPY RETURNDATASIZE SWAP1 REVERT JUMPDEST PUSH2 0xBF7 PUSH1 0x20 DUP8 DUP13 PUSH32 0x0 PUSH1 0x1 PUSH1 0x1 PUSH1 0xA0 SHL SUB AND PUSH2 0xBC2 JUMP JUMPDEST DUP8 DUP1 REVERT JUMPDEST DUP5 DUP1 REVERT JUMPDEST POP CALLVALUE PUSH2 0x183 JUMPI DUP1 PUSH1 0x3 NOT CALLDATASIZE ADD SLT PUSH2 0x183 JUMPI PUSH1 0x20 PUSH1 0xFF PUSH1 0x1 SLOAD PUSH1 0xA0 SHR AND PUSH1 0x40 MLOAD SWAP1 ISZERO ISZERO DUP2 MSTORE RETURN JUMPDEST SWAP1 POP CALLVALUE PUSH2 0x453 JUMPI DUP2 PUSH1 0x3 NOT CALLDATASIZE ADD SLT PUSH2 0x453 JUMPI PUSH32 0x0 PUSH1 0x1 PUSH1 0x1 PUSH1 0xA0 SHL SUB AND DUP2 MSTORE PUSH1 0x20 SWAP1 RETURN JUMPDEST PUSH1 0x4 CALLDATALOAD SWAP1 PUSH1 0x1 PUSH1 0x1 PUSH1 0xA0 SHL SUB DUP3 AND DUP3 SUB PUSH2 0x16A JUMPI JUMP JUMPDEST PUSH1 0x64 CALLDATALOAD SWAP1 PUSH1 0x1 PUSH1 0x1 PUSH1 0xA0 SHL SUB DUP3 AND DUP3 SUB PUSH2 0x16A JUMPI JUMP JUMPDEST CALLDATALOAD SWAP1 PUSH1 0x1 PUSH1 0x1 PUSH1 0xA0 SHL SUB DUP3 AND DUP3 SUB PUSH2 0x16A JUMPI JUMP JUMPDEST SWAP1 PUSH1 0x1F DUP1 NOT SWAP2 ADD AND DUP2 ADD SWAP1 DUP2 LT PUSH8 0xFFFFFFFFFFFFFFFF DUP3 GT OR PUSH2 0x1177 JUMPI PUSH1 0x40 MSTORE JUMP JUMPDEST PUSH4 0x4E487B71 PUSH1 0xE0 SHL PUSH1 0x0 MSTORE PUSH1 0x41 PUSH1 0x4 MSTORE PUSH1 0x24 PUSH1 0x0 REVERT JUMPDEST PUSH8 0xFFFFFFFFFFFFFFFF DUP2 GT PUSH2 0x1177 JUMPI PUSH1 0x5 SHL PUSH1 0x20 ADD SWAP1 JUMP JUMPDEST SWAP2 SWAP1 DUP3 SUB SWAP2 DUP3 GT PUSH2 0x11B2 JUMPI JUMP JUMPDEST PUSH4 0x4E487B71 PUSH1 0xE0 SHL PUSH1 0x0 MSTORE PUSH1 0x11 PUSH1 0x4 MSTORE PUSH1 0x24 PUSH1 0x0 REVERT JUMPDEST SWAP1 DUP2 PUSH1 0x20 SWAP2 SUB SLT PUSH2 0x16A JUMPI MLOAD DUP1 ISZERO ISZERO DUP2 SUB PUSH2 0x16A JUMPI SWAP1 JUMP JUMPDEST SWAP1 PUSH1 0x20 DUP1 DUP4 MLOAD SWAP3 DUP4 DUP2 MSTORE ADD SWAP3 ADD SWAP1 PUSH1 0x0 JUMPDEST DUP2 DUP2 LT PUSH2 0x11FE JUMPI POP POP POP SWAP1 JUMP JUMPDEST DUP3 MLOAD PUSH1 0x1 PUSH1 0x1 PUSH1 0xA0 SHL SUB AND DUP5 MSTORE PUSH1 0x20 SWAP4 DUP5 ADD SWAP4 SWAP1 SWAP3 ADD SWAP2 PUSH1 0x1 ADD PUSH2 0x11F1 JUMP JUMPDEST PUSH1 0x1 PUSH1 0x1 PUSH1 0xA0 SHL SUB SWAP2 DUP3 AND DUP2 MSTORE SWAP2 AND PUSH1 0x20 DUP3 ADD MSTORE PUSH1 0x40 DUP2 ADD SWAP2 SWAP1 SWAP2 MSTORE PUSH1 0xA0 PUSH1 0x60 DUP3 ADD DUP2 SWAP1 MSTORE DUP3 MLOAD SWAP1 DUP3 ADD DUP2 SWAP1 MSTORE SWAP1 SWAP3 SWAP2 PUSH1 0x0 JUMPDEST DUP3 DUP2 LT PUSH2 0x1276 JUMPI POP POP PUSH1 0x80 PUSH1 0xC0 DUP3 PUSH1 0x0 DUP3 DUP2 SWAP6 DUP9 ADD ADD MSTORE PUSH1 0x1F DUP1 NOT SWAP2 ADD AND DUP6 ADD ADD SWAP4 ADD MSTORE JUMP JUMPDEST DUP1 PUSH1 0x20 DUP1 SWAP3 DUP5 ADD ADD MLOAD PUSH1 0xC0 DUP3 DUP9 ADD ADD MSTORE ADD PUSH2 0x1250 JUMP JUMPDEST PUSH1 0x20 DUP2 DUP4 SUB SLT PUSH2 0x16A JUMPI DUP1 MLOAD SWAP1 PUSH8 0xFFFFFFFFFFFFFFFF DUP3 GT PUSH2 0x16A JUMPI ADD SWAP1 DUP1 PUSH1 0x1F DUP4 ADD SLT ISZERO PUSH2 0x16A JUMPI DUP2 MLOAD PUSH2 0x12C0 DUP2 PUSH2 0x118D JUMP JUMPDEST SWAP3 PUSH2 0x12CE PUSH1 0x40 MLOAD SWAP5 DUP6 PUSH2 0x1155 JUMP JUMPDEST DUP2 DUP5 MSTORE PUSH1 0x20 DUP1 DUP6 ADD SWAP3 PUSH1 0x5 SHL DUP3 ADD ADD SWAP3 DUP4 GT PUSH2 0x16A JUMPI PUSH1 0x20 ADD SWAP1 JUMPDEST DUP3 DUP3 LT PUSH2 0x12F6 JUMPI POP POP POP SWAP1 JUMP JUMPDEST DUP2 MLOAD DUP2 MSTORE PUSH1 0x20 SWAP2 DUP3 ADD SWAP2 ADD PUSH2 0x12E9 JUMP JUMPDEST PUSH1 0x1 SLOAD PUSH1 0x1 PUSH1 0x1 PUSH1 0xA0 SHL SUB AND CALLER SUB PUSH2 0x131A JUMPI JUMP JUMPDEST PUSH1 0x64 PUSH1 0x40 MLOAD PUSH3 0x461BCD PUSH1 0xE5 SHL DUP2 MSTORE PUSH1 0x20 PUSH1 0x4 DUP3 ADD MSTORE PUSH1 0x20 PUSH1 0x24 DUP3 ADD MSTORE PUSH32 0x4F776E61626C653A2063616C6C6572206973206E6F7420746865206F776E6572 PUSH1 0x44 DUP3 ADD MSTORE REVERT JUMPDEST PUSH1 0x2 SLOAD SWAP1 DUP2 DUP2 MUL SWAP2 DUP2 DUP4 DIV EQ DUP2 ISZERO OR ISZERO PUSH2 0x11B2 JUMPI PUSH2 0x2710 PUSH2 0x1380 SWAP3 DIV SWAP1 PUSH2 0x11A5 JUMP JUMPDEST SWAP1 JUMP INVALID LOG2 PUSH5 0x6970667358 0x22 SLT KECCAK256 0x4F PUSH2 0x3934 0xDA 0xBA 0xB3 0xBF 0x4F 0xC2 0xBE CALLDATALOAD PUSH19 0x62404C7FEF15830B0C379F1C04873D616E5878 PUSH5 0x736F6C6343 STOP ADDMOD SHR STOP CALLER "},"methodIdentifiers":{"ADDRESSES_PROVIDER()":"0542975c","POOL()":"7535d246","UNISWAP_V2_ROUTER()":"a82ed9ec","UNISWAP_V3_ROUTER()":"41c64a2f","defaultPoolFee()":"6f60a6dd","emergencyWithdraw(address)":"6ff1c9bc","executeOperation(address,uint256,uint256,address,bytes)":"1b11d0ff","getBalance(address)":"f8b2cb4f","getQuoteV2(uint256,address[])":"8898a1b6","maxSlippageBps()":"c4aa7395","owner()":"8da5cb5b","renounceOwnership()":"715018a6","requestArbitrageLoan(address,uint256,address,address,uint256)":"289323fd","requestArbitrageLoanWithPath(address,uint256,address[],uint256)":"25f10562","transferOwnership(address)":"f2fde38b","updateConfig(bool,uint24,uint256)":"2341d1db","useV3Router()":"0f5dc0fa","withdrawProfit(address)":"24e26241"}}}}}